:1000000076EF0FF00000000014EF0FF0000000008A
:0C001000000000000000000069EF0FF08D
:10001C000B6A0A6A096A00500402F4CF09F0F3CFA4
:10002C0008F001500502F4CF0BF0F3CF0AF00050AA
:10003C000502F3500926F4500A22E86A0B220150FB
:10004C000402F3500926F4500A22E86A0B2208C075
:10005C0000F009C001F00AC002F00BC003F012005E
:10006C001E0E716E100E0001AC6F040EAD6FACC0A5
:10007C00E1FFADC0E2FFE69EACC0E1FFADC0E2FF28
:10008C00E69C040EAC25E16E000EAD21E26EE68C12
:10009C00180E876F040E886F87C0E1FF88C0E2FFDF
:1000AC00E69E87C0E1FF88C0E2FFE69C040E872530
:1000BC00E16E000E8821E26EE68C020EAC25E16E3C
:1000CC00000EAD21E26EAEC0E6FFAFC0E6FF010E42
:1000DC00AC25E16E000EAD21E26E400EE66EACC0BA
:1000EC00E9FFADC0EAFFEECF00F0ACC0E1FFADC060
:1000FC00E2FF400E0014E66EACC0E9FFADC0EAFFB3
:10010C00EECF00F0ACC0E1FFADC0E2FF880E0010F6
:10011C00E66EACC0A8F0ADC0A9F0040EAC19006E30
:06012C0000C0ACF012005F
:1001320004012251010A13E120C401F01F0E01162D
:100142000150000A0CE10001A48F04012151030AAD
:1001520004E1010E0001896F02D00001896B0401E4
:100162002251000AD8A48DD020C401F01F0E01161E
:100172000150020AD8A485D024C401F00F0E011642
:100182000150000AD8B47DD00001A48F040124BF1D
:1001920016D024C403F00F0E031603C000F0000EA5
:1001A200016E003600900136AA0E0024E96E000EA0
:1001B2000120EA6EEECF04F0EECF05F015D024C494
:1001C20003F00F0E031603C000F0000E016E00369E
:1001D20000900136850E0024E96E000E0120EA6EC1
:1001E200EECF04F0EECF05F02151030A07E104C07F
:1001F200E1FF05C0E2FF840EE66E43D024C400F0A6
:100202000F0E0016700E026E0F0E036E00500226C5
:10021200D8B0032A02C0E9FF03C0EAFFFE0EEE14C3
:10022200006EEECF01F0FF0E011602C0E1FF03C027
:10023200E2FF00C0E6FF01C0E6FF24AF11D004C018
:10024200E1FF05C0E2FFE66A040E0418006E00C07A
:1002520004F004C0E1FF05C0E2FF400EE66E11D0DB
:1002620004C0E1FF05C0E2FF880EE66E040E04182A
:10027200006E00C004F004C0E1FF05C0E2FFC80E3A
:04028200E66E120012
:1002860020C401F01F0E01160150010A01E094D0AE
:1002960004012451000A01E08FD02151060A42E1EF
:1002A60037D00001B051010A17E1010E006E230E8E
:1002B600016E000E026E120E0026000E01220222B0
:1002C60000C0A1F001C0A2F002C0A3F0090EA56F04
:1002D600000EA66FC00EA46F25D00001B051010A12
:1002E60012E1960E006E220E016E000E026E00C026
:1002F600A1F001C0A2F002C0A3F03F0EA56F000E50
:10030600A66FC00EA46F0ED00001800EA46F0AD097
:1003160004012351210AC5E02351220ADEE02351BC
:10032600230AF2E020C401F0600E0116050E006EED
:10033600005004E00132019EFF0FFBD70150010A75
:1003460001E03AD026D038D037D0980E0001A16F00
:10035600000EA26F010EA56F000EA66FC10EA46F50
:100366002BD00001800EA46F23C498F025D0000185
:100376009E0EA16F000EA26F010EA56F000EA66F56
:10038600810EA46F19D00001800EA46F22C49EF0C6
:1003960013D004012151010AD6E02151090AD4E003
:1003A6002151020AD2E021510A0ADBE02151030A57
:0A03B600DEE021510B0AE7E012001F
:1003C0000401286B296B4AD00001A48F0401288105
:1003D00000018951010A02E10401288354D000017F
:1003E000A48F51D00001A48F040124BF16D024C4CF
:1003F00003F00F0E031603C000F0000E016E00366E
:1004000000900136AA0E0024E96E000E0120EA6E6B
:10041000EECF04F0EECF05F015D024C403F00F0E9C
:10042000031603C000F0000E016E00360090013686
:10043000850E0024E96E000E0120EA6EEECF04F076
:10044000EECF05F004C0E9FF05C0EAFFEECF01F0F2
:1004500001A403D00401010E286F15D020C401F0BF
:100460001F0E01160150000AAFE020C401F01F0E5C
:1004700001160150010AB3E020C401F01F0E01165D
:100480000150020AAFE00001A4AF07D0280EA16F0F
:0C049000040EA26FA481020EA56F1200E2
:10049C0004012051800AD8A478D0C00E0001A46FAA
:1004AC0069D00001840E006E230E016E000E026EE8
:1004BC0000C0A1F001C0A2F002C0A3F0120EA56F03
:1004CC00000EA66F62D00001030E006E000E016ECE
:1004DC0022C404F0000E056E9BDD640E0024E96E50
:1004EC00000E0120EA6EEECFA1F0EECFA2F0EECF1F
:1004FC00A3F0020EA125F66E000EA221F76E000EDF
:10050C00A321F86E0900F5CF00F00900F5CF01F03A
:10051C0000C0A5F001C0A6F038D0040122510001A2
:10052C00B15D23E3030E006E000E016E22C404F0D5
:10053C00000E056E6DDD5A0E0024E96E000E0120D2
:10054C00EA6EEECFA1F0EECFA2F0EECFA3F0A1C0F9
:10055C00F6FFA2C0F7FFA3C0F8FF0900F5CF00F02B
:10056C0000C0A5F0000EA66F01D0A46B0ED0000148
:10057C00A46B0BD004012351010A93E02351020A0E
:0C058C00A2E02351030AC9E0F2D71200DC
:100598000001A48F716AB46B22C4B0F0B051000A94
:1005A80003E1100EA76F03D0200EA76F5BDD1200CA
:1005B800000E0001A65D02E1080EA55D10E2A5C0CF
:1005C80003F0A6C004F0B551000A03E1010EB56FAF
:1005D80005D0B551010A02E1020EB56F04D0080E2C
:1005E800036E000E046E85C0E1FF86C0E2FFE6924E
:1005F80085C0E1FF86C0E2FFE69085C0E9FF86C0BE
:10060800EAFFEECF00F085C0E1FF86C0E2FF0450AC
:100618000010E66E010E8525E16E000E8621E26E61
:1006280003C0E6FF0350A55D006E0450A659016E95
:1006380000C0A5F001C0A6F0280E966F040E976FB3
:10064800A4B12FD0035004102BE0A1C0F6FFA2C024
:10065800F7FFA3C0F8FF0900F5CF00F096C0E1FF4F
:1006680097C0E2FF00C0E6FF964B972B010EA1252D
:10067800006E000EA221016E000EA321026E00C0C2
:10068800A1F001C0A2F002C0A3F0010E035C006E4D
:10069800000E0458016E00C003F001C004F0D2D768
:1006A80024D00350041021E0A1C0E9FFA2C0EAFF52
:1006B80096C0E1FF97C0E2FFEECFE6FF964B972B7F
:1006C800010EA125006E000EA221016E00C0A1F04E
:1006D80001C0A2F0010E035C006E000E0458016E0A
:0C06E80000C003F001C004F0DCD71200D9
:1006F40020C401F0600E0116050E006E005004E0E7
:100704000132019EFF0FFBD70150000A01E05ED0C9
:100714003AD00001A48F080EA76F58D0BDDE56D082
:1007240039DF54D00001B00EA16F000EA26FA48176
:10073400010EA56FA48F4AD041DE48D0F8DC46D024
:10074400B40E006E000E016E040124510026D8B0D0
:10075400012A00C0A1F001C0A2F00001A481010E91
:10076400A56FA48F33D00001A48FB40EE16E000EE8
:10077400E26E04012451E126D8B0E22A22C4E6FF45
:1007840025D024D023D004012151050AC2E02151EF
:10079400060AC4E02151090AC3E02151080AC2E053
:1007A4002151000AC9E02151010AC8E02151030A7C
:1007B400C5E021510A0AC4E021510B0AD4E02151B9
:0E07C400070ADFE021510C0ADDE0DCD712004D
:1007D200010E0001646F230E656F000E666F9E0EA0
:1007E2005A6E230E5B6E000E5C6E6E0E5D6E230EF5
:1007F2005E6E000E5F6E4E0E606F230E616F000E16
:04080200626F12000F
:0E080600160E6F6E9F0E6B6E3B0E696E12002B
:0A08140000018A5301E035DD1200F7
:10081E00010E00016F25E96E000E7021EA6EEECF1B
:10082E0000F000C002F0000E8F5D02E102508E5DFE
:10083E0003E28EC002F00AD002508E5D006E000EF2
:10084E008F59016E00C08EF001C08FF0036A025006
:10085E00035C1CE2280EE96E040EEA6E0350E926D4
:10086E00D8B0EA2AEECF00F08BC0E1FF8CC0E2FFD9
:10087E0000C0E6FF010E8B25006E000E8C21016E6E
:10088E0000C08BF001C08CF0032AE1D7000E006E81
:10089E008F51005C02E18E51000828E2010E942572
:1008AE00E16E000E9521E26E080EE66E020E9425A4
:1008BE00E16E000E9521E26E280EE66E040EE66ED7
:1008CE006FC0E9FF70C0EAFFEECF00F000BC07D0AA
:1008DE0094C0E1FF95C0E2FFC80EE66E06D094C04C
:1008EE00E1FF95C0E2FF880EE66E19D0010E942549
:1008FE00E16E000E9521E26E080EE66E020E942554
:10090E00E16E000E9521E26E200EE66E040EE66E8E
:10091E0094C0E1FF95C0E2FF840EE66E8D9F12003B
:10092E006D980001A4BF49D08DAF28D0020EB36FD1
:10093E00010E8525E16E000E8621E26EE66A85C007
:10094E00E1FF86C0E2FFC80EE66E010E9425E16E51
:10095E00000E9521E26E080EE66E020E9425E16EF3
:10096E00000E9521E26E280EE66E040EE66E94C021
:10097E00E1FF95C0E2FFC80EE66E1ED0010E942573
:10098E00E16E000E9521E26E080EE66E020E9425C3
:10099E00E16E000E9521E26E200EE66E040EE66EFE
:1009AE0094C0E1FF95C0E2FF8C0EE66E85C0E1FFBC
:1009BE0086C0E2FF840EE66E82D08DBF80D0040129
:1009CE0020AF55D00001A6510401275D04E10001BE
:1009DE00A5510401265D04E226C4A5F027C4A6F0A5
:1009EE00E4DD010EB36F010E9425E16E000E95212C
:1009FE00E26E080EE66E020E9425E16E000E952153
:100A0E00E26E200EE66E040EE66E94C0E1FF95C017
:100A1E00E2FF800EE66EB26B010E6F25E16E000EE8
:100A2E007021E26E080EE66E020E6F25E16E000E6C
:100A3E007021E26E200EE66E040EE66E6FC0E1FFD0
:100A4E0070C0E2FF840EE66E010EB26F020E8525B7
:100A5E00E16E000E8621E26E280EE66E040EE66E44
:100A6E0085C0E1FF86C0E2FFC80EE66E28D0000109
:100A7E00020EB36F010E8525E16E000E8621E26E29
:100A8E00E66A85C0E1FF86C0E2FFC80EE66E010E83
:100A9E009425E16E000E9521E26E080EE66E020EB2
:100AAE009425E16E000E9521E26E280EE66E040E80
:100ABE00E66E94C0E1FF95C0E2FFC80EE66E12002E
:100ACE000001B36B85C0E1FF86C0E2FFE66A040E4B
:100ADE008519E16E86C0E2FF000EE21AE66A8DAF5E
:060AEE0001D08D9F1200F3
:100AF4006D92699468A403D0FB0E6816FBD71200AC
:0A0B04006984EF0E68166D8212007E
:100B0E000001B351020A02E183DE1ED0D9DFB251D9
:100B1E00000A19E1010E9425E16E000E9521E26E98
:100B2E00080EE66E020E9425E16E000E9521E26E21
:100B3E00200EE66E040EE66E94C0E1FF95C0E2FF55
:0A0B4E008C0EE66E01D0B26B1200AF
:100B580085C0E9FF86C0EAFFEECF00F000AE05D001
:100B680085C0E1FF86C0E2FFE66A0001B56BB36BA2
:0E0B7800A56BA66BA46BBADD49DED5DE1200BC
:100B8600040E00018519006E00C085F0A751080A01
:100B96000AE122C46EFF6E50000803E2100EA76F32
:100BA60002D0040EA76FB351010A3AE1020E852561
:100BB600E16E000E8621E26E280EE66E040EE66EEB
:100BC600F8DCB551020A07E185C0E1FF86C0E2FF05
:100BD600840EE66E24D0040E8519006E00C085F0E2
:100BE60085C0E9FF86C0EAFFEECF00F000BC0CD05E
:100BF600040E8519006E00C085F085C0E1FF86C031
:100C0600E2FFC80EE66E0BD0040E8519006E00C01A
:100C160085F085C0E1FF86C0E2FF880EE66E01D052
:040C260053DF120086
:100C2A00D3DDA86BA96B996B9A6B6A6A686AE6DD71
:100C3A006D8C6E6A716A6D9C9B6B9C6B000E9C5DE1
:100C4A0002E1080E9B5D17E29BC000F09CC001F018
:100C5A00003600900136003600900136000E00245E
:100C6A00E16E040E0120E26EE66AE66AE66AE66A68
:100C7A009B4B9C2BE3D7160E706E68A603D0F70E1B
:100C8A006816FBD7A46B8D6B8E6B8F6B6D98080EF5
:0C0C9A00856F040E866FB06BA76B120014
:040CA600A19A1200FD
:100CAA0070A019D06FC0E9FF70C0EAFFEECF01F063
:100CBA000150800A0FE185C0E9FF86C0EAFFEECF46
:100CCA0001F00150840A06E16FC0E1FF70C0E2FF43
:0C0CDA008C0EE66E7090DF0E68161200A3
:0E0CE600ACB202D00000FCD7C4C0ADFF1200BB
:100CF4000001C551000A12E0C4C000F0000E016EEC
:100D0400003600900136850E0024E96E000E0120A5
:100D1400EA6EEECF04F0EECF05F011D0C4C000F0BF
:100D2400000E016E003600900136AA0E0024E96E12
:100D3400000E0120EA6EEECF04F0EECF05F0020EB5
:100D44000424E16E000E0520E26EC6C0E6FFC7C0B3
:100D5400E6FF010E0424E16E000E0520E26EC8C019
:100D6400E6FF04C0E9FF05C0EAFFEECF00F004C0CF
:100D7400E1FF05C0E2FF400E0014E66E04C0E9FF87
:100D840005C0EAFFEECF00F004C0E1FF05C0E2FFBA
:100D9400880E0010E66EC551000A1BE0C4C000F0C6
:100DA400000E016E003600900136850E0024026E9E
:100DB400000E0120036E02C0E9FF03C0EAFF040E27
:100DC400EE18006E02C0E1FF03C0E2FF00C0E6FFC0
:100DD4001AD0C4C000F0000E016E00360090013637
:100DE400AA0E0024026E000E0120036E02C0E9FF69
:100DF40003C0EAFF040EEE18006E02C0E1FF03C058
:100E0400E2FF00C0E6FF04C000F005C001F01200DC
:100E1400026A110E025C18E22C0EE16E000EE26E04
:100E24000250E126D8B0E22A0250010F006E016A96
:100E3400000E01222C0E0024E96E000E0120EA6E41
:0E0E4400EECFE6FF022AE5D7CFC03CF0120049
:100E5200016A0150050812E37D0EE96E000EEA6E8A
:100E62000150E926D8B0EA2AEE500001CF1904E178
:100E72000150010F006E03D0012AEBD7006A120065
:100E820093D0B5B601D00BD10001D0B102D0809081
:100E920001D08080D0B102D0829401D08284FFD070
:100EA200B5B601D0FCD00001D0B102D0809201D001
:100EB2008082D0B102D0829401D08284F0D0B5B6C3
:100EC20001D0EDD00001D0B102D0809401D0808455
:100ED200D0B102D0829401D08284E1D0B5B601D0E3
:100EE200DED00001D0B102D0809601D08086D0B190
:100EF20002D0829401D08284D2D0B5B601D0CFD0B4
:100F02000001D0B102D0809A01D0808AD0B102D043
:100F1200829401D08284C3D0B5B601D0C0D0000182
:100F2200D0B102D0819C01D0818CD0B102D0829408
:100F320001D08284B4D0B5B601D0B1D00001D0B115
:100F420002D0819A01D0818AD0B102D0829401D09C
:100F52008284A5D0D0B102D0829001D08280D0B15B
:100F620002D0829401D082849AD0D0B102D08292EF
:100F720001D08282D0B102D0829401D082848FD0FB
:100F8200B5B601D08CD0D0B102D0819801D0818881
:100F9200D0B102D0829401D0828481D0B5B601D082
:100FA2007ED0B5907CD07BD00001CF513E0AD8B420
:100FB20068D7CF511E0AD8B467D7CF51590AD8B4CF
:100FC20063D7CF513F0AD8B46BD7CF511F0AD8B4D9
:100FD2006AD7CF515A0AD8B466D7CF51400AD8B48B
:100FE2006ED7CF51200AD8B46DD7CF515B0AD8B48F
:100FF20069D7CF51410AD8B471D7CF51210AD8B499
:1010020070D7CF515C0AD8B46CD7CF51420AD8B44A
:1010120074D7CF51220AD8B473D7CF515D0AD8B44E
:101022006FD7CF51430AD8B477D7CF51240AD8B457
:1010320076D7CF515F0AD8B472D7CF51440AD8B409
:101042007AD7CF51250AD8B479D7CF51600AD8B40C
:1010520075D7CF51260AD8B47DD7CF51610AD8B4FB
:1010620079D7CF51270A81E0CF51620AD8B47DD710
:10107200CF51450A85E0CF51280A85E0CF512C0A8D
:1010820082E0CF51580AD8B47ED7CF513C0A86E0CD
:10109200CF51290A86E0CF514A0A83E084D7120051
:1010A200000E0001C51902E1000EC41902E1016A35
:1010B2000AD0C4C0E9FFC5C0EAFFEECF00F0000EBF
:0C10C20000BE010E016E01C000F0120023
:1010CE00840E006E230E016E000E026E0E0E0024B4
:1010DE00F66E000E0120F76E000E0220F86E09006B
:1010EE00F5CF03F003C004F00F0E0024F66E000ED1
:1010FE000120F76E000E0220F86E0900F5CF01F008
:10110E000150035C12E2840E006E230E016E000E7F
:10111E00026E0F0E0024F66E000E0120F76E000E0A
:10112E000220F86E0900F5CF04F0840E006E230E37
:10113E00016E000E026E100E0024F66E000E0120DF
:10114E00F76E000E0220F86E0900F5CF01F0015087
:10115E00045C12E2840E006E230E016E000E026E0F
:10116E00100E0024F66E000E0120F76E000E022007
:0E117E00F86E0900F5CF04F004C000F0120076
:0A118C00D08EA28AA08AF28E120013
:101196000001A751000A0BE16D6A696A03EC04F0CD
:1011A6006DB602D06D86FCD70001010EA76FA75160
:1011B600010A08E16DBA06D0686A696A69806988B9
:1011C600020EA76F68A405D069A403D0FB0E6816AB
:1011D6008EDC6DA202D064DDD6D068A018D069A0DE
:1011E60016D020DD040EA76F200E0401026F040E38
:1011F600036F080E016F000E0015006E00C000F4AC
:101206008C0E0011006E00C000F4FE0E681668A871
:1012160005D069A803D073DCEF0E681668AC04D05D
:1012260069AC02D0BF0E681668AA03D069AA01D0BD
:1012360039DD68A202D069B26A6A040E0001A75DB0
:1012460002E22EDDA0D069A69DD0C56B040EC55D59
:10125600D8B098D068A693D06CCF9DF0F70E6816DC
:10126600780E9D15016E0150000AD8A487D0FD0E98
:101276009D15016E026AFF0E0216000E021802E1AB
:10128600000E01186DE17E0E9D15016E01C003F082
:101296000332039E03C000F0000E016E003600907C
:1012A6000136003600900136000E0024026E040E50
:1012B6000120036E02C06FF003C070F002C094F00C
:1012C60003C095F0040E9419006E00C094F002C09D
:1012D600E9FF03C0EAFFEECF00F000C001F03C0ECC
:1012E60001160132019E0132019E01500D0A35E1BF
:1012F600020E6F25E96E000E7021EA6EEECF01F048
:10130600EECF02F00250040A02E1280E011822E193
:10131600020E6F25E16E000E7021E26E200EE66E63
:10132600040EE66EC46B080EC45D14E2200EE16E78
:10133600040EE26EC451E126D8B0E22A280EE96E08
:10134600040EEA6EC451E926D8B0EA2AEECFE6FFCB
:10135600C42BE9D7ACEC05F002D087EC05F00DD034
:10136600FD0E9D15016E026AFF0E0216000E021892
:1013760002E1040E011801E103DC00D001D002D025
:08138600C52B64D78DDC1200B9
:10138E000001C76BC86BC96B020EC425F66E000E4A
:10139E00C521F76E000EC621F86E0900F5CF05F0D7
:1013AE00030EC425F66E000EC521F76E000EC62183
:1013BE00F86E0900F5CF00F000C003F0000E046EC9
:1013CE0003C001F0006A05500024066E000E0120D5
:1013DE00076EC4C008F0C5C009F0C6C00AF0010E01
:1013EE000824F66E000E0920F76E000E0A20F86E25
:1013FE000900F5CF01F00150020A1BE1060E082488
:10140E00F66E000E0920F76E000E0A20F86E090027
:10141E00F5CF01F00150C75D0CE2060E0824F66E02
:10142E00000E0920F76E000E0A20F86E0900F5CFA7
:10143E00C7F0010E0824F66E000E0920F76E000E9E
:10144E000A20F86E0900F5CF01F00150040A1BE1E5
:10145E00080E0824F66E000E0920F76E000E0A2004
:10146E00F86E0900F5CF01F00150C75D0CE2080ED1
:10147E000824F66E000E0920F76E000E0A20F86E94
:10148E000900F5CFC7F008C0F6FF09C0F7FF0AC084
:10149E00F8FF0900F5CF00F00050C825016E000ED0
:1014AE00C921026E01C0C8F002C0C9F00750025C2B
:1014BE0002E10650015C01E30FD008C0F6FF09C03F
:1014CE00F7FF0AC0F8FF0900F5CF00F0005008261C
:0E14DE00000E09220A2283D7C7C000F01200B8
:1014EC000001A751000A0BE16D6A696A03EC04F074
:1014FC0047DE6DB602D06D86FCD7010EA76F1200C9
:0A150C00D10ED66EF294D59E1200A7
:101516000001CE6BEED0B582F5D0B584F3D0CC51B8
:101526000008D8B0E5D0840ECC5DD8B0E1D0B5A225
:1015360040D0CD6B120ECD5D3AE2CDC000F0000E6C
:10154600016E026E036E00360090013602360336D7
:101556002A0E0024F66E230E0120F76E000E0220DE
:10156600F86E0900F5CF01F00150CC191EE1CDC08F
:1015760000F0000E016E026E036E0036009001361A
:10158600023603362A0E0026230E0122000E022200
:10159600010E0024F66E000E0120F76E000E0220EA
:1015A600F86E0900F5CFCEF002D0CD2BC3D7B59299
:1015B6000ED0120ECC25F66E220EF76E000EF72216
:1015C600000EF86E000EF8220900F5CFCEF0CE51CF
:1015D6000108D8B07CD0E00ECE5D2DE3CE51E708F1
:1015E6002AE3B5A415D00F0ECE15006E960E002474
:1015F600F66E230EF76E000EF722000EF86E000E42
:10160600F8220900F5CF00F0001E0050561613D040
:101616000F0ECE15006E960E0024F66E230EF76E94
:10162600000EF722000EF86E000EF8220900F5CF24
:1016360000F000505612CEC0CFF008DC00C058F0C3
:1016460000522AE0B5A427D0B5A005D0CEC0CFF071
:101656000001D06B13DC58040001CD6F050ECD5D83
:1016660018E27D0EE16E000EE26ECD51E126D8B095
:10167600E22ACD51010F006E016A000E01227D0E95
:101686000024E96E000E0120EA6EEECFE6FFCD2BB8
:10169600E5D76307B5941BD00001060E635D17E21C
:1016A6007D0EE16E000EE26E6351E126D8B0E22AAD
:1016B600CEC0E6FF632BB5A006D0CEC0CFF0010E9C
:1016C600D06F41EC07F0CEC0CFF00AEC07F063C054
:1016D600CDF00001CD5105080BE37D0EE16E000E45
:1016E600E26ECD51E126D8B0E22AE66ACD2BF1D7DB
:1016F60009D0CC51E00AD8B40ED7CC51F00AD8B4F0
:061706000CD70DD7120004
:10170C000001C36B200EA75D03E36DB201D002D0C4
:10171C00006A2ED0A8C0C4F0A9C0C5F0BCDC005231
:10172C0026E1A8C0C1F0A9C0C2F0000EA91902E1BF
:10173C00000EA8190AE0010EC125E96E000EC221A7
:10174C00EA6EEECF00F000C0C3F0C0C0C4F0C56BB1
:10175C00BDC0C6F0BEC0C7F0BFC0C8F07AEC06F082
:10176C0000C0A8F001C0A9F0C3C000F001D0006A0D
:02177C00120059
:10177E00BDC000F00032009E0032009E0032009E7E
:10178E000032009E00500001BD19026E02C0BDF075
:10179E0002C000F00032009E0032009E0050021A7D
:1017AE0002C0BDF002C000F00032009E0250001ACE
:0C17BE0000C0BDF0010E0016001E12005D
:1017CA00200E0001A75D03E36DB201D002D0006ACA
:1017DA0047D099C0C4F09AC0C5F05EDC00523FE120
:1017EA00C0C0C4F0010EC56FBDC0C6F0BEC0C7F010
:1017FA00BFC0C8F07AEC06F000C099F001C09AF0B8
:10180A00676B686B696B6A6B99C0C4F09AC0C5F064
:10181A0043DC00520FE0010E016E0150000A01E1A3
:10182A00B5DC00016751681169116A1102E0006AAA
:10183A0017D0EAD799C0C1F09AC0C2F0000E9A191F
:10184A0002E1000E991909E0010EC125E96E000EA8
:10185A00C221EA6EEECF00F003D0006A01D0006A1E
:02186A0012006A
:0A186C006D6A696A0001A76B1200A3
:10187600080E0C6EC10E0D6E0D2EFED70C2EFCD76B
:061886000000000012004A
:10188C00F250026EF29E0500FF6A0150FE6E00508F
:08189C00FD6E02BEF28E120087
:1018A40014DC00C0BDF0010E0001C46F230EC56F2F
:1018B400000EC66F6ADD00C0BEF0BD51005C03E2DD
:0C18C400BDC000F002D0BEC000F0120059
:1018D000A69CB6C0A9FFA69EA680A8CF00F01200C5
:1018E00077C0E1FF78C0E2FFB6C0E6FF75C000F048
:0818F00076C001F0CBDF12000D
:0418F800B9DF120042
:1018FC00F0A64FD0F0A04DD0F090D58EB5B81CD03E
:10190C00F1BA0DD00B0E0001845D07E28451020880
:10191C0004E25932599E80B8598EF18A0CD00001DC
:10192C00F19A84078451000A06E1EADD59C0CCF033
:10193C00ECDD0B0E846F2DD0F1BA2BD0000184514D
:10194C0002080FE284510A080CE3010E8315006EA5
:10195C0000B002D0809801D080888333839F8407A5
:10196C0018D08451020A07E1B5BA02D0809801D090
:10197C00808884070ED08451010A03E18088840793
:10198C0008D08451000A05E10B0E846F9288B5983B
:04199C00B7DD1200A1
:1019A0000001A751010A07E16DBA05D0686A698094
:1019B0006988020EA76F68A406D069A404D0FB0E44
:1019C00068167AEC05F06DA203D053EC06F0DCD07B
:1019D00068A019D069A017D015EC06F0040EA76F07
:1019E000200E0401026F040E036F080E016F000E3B
:1019F0000015006E00C000F48C0E0011006E00C0D7
:101A000000F4FE0E681668A806D069A804D082EC1F
:101A100005F0EF0E681668AC04D069AC02D0BF0EBA
:101A2000681668AA04D069AA02D055EC06F068A22C
:101A300002D069B26A6A040E0001A75D03E253ECAA
:101A400006F0A2D069A69ED0CB6B040ECB5DD8B0B9
:101A500099D068A694D06CCF9DF0F70E6816780EDA
:101A60009D15016E0150000AD8A488D0FD0E9D1569
:101A7000016E026AFF0E0216000E021802E1000E4D
:101A800001186DE17E0E9D15016E01C003F0033259
:101A9000039E03C000F0000E016E00360090013678
:101AA000003600900136000E0024026E040E012064
:101AB000036E02C06FF003C070F002C094F003C068
:101AC00095F0040E9419006E00C094F002C0E9FF76
:101AD00003C0EAFFEECF00F000C001F03C0E01169B
:101AE0000132019E0132019E01500D0A35E1020EC4
:101AF0006F25E96E000E7021EA6EEECF01F0EECF99
:101B000002F00250040A02E1280E011822E1020E3E
:101B10006F25E16E000E7021E26E200EE66E040E5F
:101B2000E66ECA6B080ECA5D14E2200EE16E040E6A
:101B3000E26ECA51E126D8B0E22A280EE96E040E00
:101B4000EA6ECA51E926D8B0EA2AEECFE6FFCA2BE0
:101B5000E9D7ACEC05F002D087EC05F00ED0FD0E15
:101B60009D15016E026AFF0E0216000E021802E1B8
:101B7000040E011802E1C3EC05F000D001D002D040
:0A1B8000CB2B63D753EC06F01200E4
:101B8A00F2AA0BD0F2A409D0B5A803D0B5980001E7
:0C1B9A00836B00010B0E846FB4DC1200A2
:101BA600000184510B0A30E1B6C083F0B6C0BDF027
:101BB600E3DD00B002D0B59A01D0B58AF0968192E5
:101BC600808893929298070E0B6E170E0C6E6A0E13
:101BD6000D6E0D2EFED70C2EFCD70B2EFAD700005D
:101BE6008098100E0C6E940E0D6E0D2EFED70C2ED8
:101BF600FCD7000081829382B5880A0E846FF0902C
:0C1C0600F086010E006E01D0006A120092
:101C12000001BC6BB8C001F0010E006E015004E07F
:101C220000360090FF0FFBD700C0BBF0B6C0E9FF43
:101C3200B7C0EAFF0050EE14016E0152010ED8A4A3
:101C4200000E006EBA51001A18E0B951000804E201
:101C520011DE10DEB907F9D7B6C0E9FFB7C0EAFF57
:101C6200BB51EE14016E0152010ED8A4000E006E9B
:101C7200BA51001A02E0FF0EBC6FBCC000F01200A5
:101C8200AEC0BDF0AFC0BEF0400E0001BF6F010E8E
:061C9200C06F3BDD1200F3
:101C9800B6C0BDF0B7C0BEF0B8C0BFF0010E0001BD
:061CA800C06F8FDD120089
:101CAE00A6A202D00000FCD7A69CB6C0A9FFB7C062
:101CBE00A8FFA69EA684F2CF00F0F29E550EA76E48
:101CCE00AA0EA76EA68200BE02D0F29E01D0F28EA0
:041CDE00A6941200B6
:101CE200026A0001BB51025C19E2BA510224006E81
:101CF200016A000E01220050B625E96E0150B7219B
:101D0200EA6E0250B825D96E000EB921DA6EEE5095
:101D1200DE1802E0006A04D0022AE3D7010E006E48
:021D22001200AD
:101D2400016A01500001B65D10E38274070E0B6E68
:101D3400170E0C6E6A0E0D6E0D2EFED70C2EFCD7F0
:0E1D44000B2EFAD70000012AECD78294120071
:101D52000900F5CFE6FF0006FBE10106F9E11200FA
:101D6200E60E0001756F0C0E766FC40E776F000ED3
:101D7200786FFF0E796FFF0E7A6F000E7B6F000E89
:101D82007C6FFF0E716FFF0E726F000E736F000E8D
:101D9200746FFF0E6B6FFF0E6C6F000E6D6F000E97
:101DA2006E6FAC8A900EAB6E948E949C9EAA03D0FA
:081DB200AECF00F0FBD71200D8
:101DBA000B0E0001846FF19AF090480EF012F19424
:101DCA00C70ED56ED10ED66EF294F28A016A015010
:101DDA0005080BE37D0EE16E000EE26E0150E1266E
:101DEA00D8B0E22AE66A012AF2D7636BB56A120012
:101DFA0054DD00C0B1F0010E8A6FB6C0AEF0B7C0B4
:101E0A00AFF0B8C09FF0B9C0A0F015EC06F0010E13
:0E1E1A00016E0150010A02E176EC0AF012009E
:101E280000C021F001C020F002C01FF003C01EF066
:101E380004C01DF005C01CF008C01BF009C01AF052
:101E48000AC019F00BC018F0E1CF2AF0E2CF2BF04E
:101E5800E9CF28F0EACF29F0F3CF26F0F4CF27F026
:101E6800F5CF25F0F8CF22F0F7CF23F0F6CF24F006
:101E780093DD40DD6DB2C49225C0F5FF22C0F8FFA6
:101E880023C0F7FF24C0F6FF26C0F3FF27C0F4FFE6
:101E980021C000F020C001F01FC002F01EC003F0F6
:101EA8001DC004F01CC005F01BC008F01AC009F0E2
:101EB80019C00AF018C00BF028C0E9FF29C0EAFFD2
:0A1EC8002AC0E1FF2BC0E2FF110069
:101ED200156ED8CF16F0E0CF17F056DE1750E06E31
:0A1EE2001650D86E153A153810009E
:101EEC00D1EC11F0F26A0F0EC16E100E926E030E51
:101EFC00936EB80E946E806A816A826AC46AF19E8F
:101F0C0056DF000EB66F050EB76F400EB86F050E9C
:101F1C00B96F6DDFB886040EB06EE10EAF6EAC8497
:101F2C001ADFB66BCFDC00B002D0B59601D0B58607
:101F3C00020EB66FF1DE8186C00EF212FF0EB66F86
:101F4C002CDE005201E1FAD70001820EB66F0F0EA3
:101F5C00B76F070EB86FC80EB96FBA6B54DE00526C
:101F6C0027E082848184818EB580C492ED0EB66F99
:101F7C0014DE005201E1FAD79C0E0C6ED70E0D6EDA
:101F8C000D2EFED70C2EFCD7B66B07DE005201E1EE
:101F9C00FBD7100E0B6E390E0C6E0D0E0D6E0D2E3A
:101FAC00FED70C2EFCD70B2EFAD700000000829423
:101FBC0062DE00521AE0C482ED0EB66FEEDD005206
:101FCC0001E1FAD79C0E0C6ED70E0D6E0D2EFED7BE
:101FDC000C2EFCD7030E050100150001B66FB637A9
:101FEC00B691DBDD005201E1F5D7B5A0D5D02ED0EE
:101FFC00B5B603D01E0EB66F6DDC33D0B5B610D0AF
:10200C004D064D50000A0CE10001B66B010EB76F86
:10201C0048DEB586320E4D6E1E0E0001B66F5ADCD0
:10202C0020D0B5A60FD04D064D50000A0BE1000193
:10203C00B66BB76B36DEB596320E4D6E1E0E0001CA
:10204C00B66F48DC0ED0320E4D6E0BD000017D51B8
:10205C00450ACEE07D513E0AD1E07D51580AE1E0BF
:10206C00F2D700012C0EB66F000EB76F3D0EB86F95
:10207C00000EB96FBA6B100EBB6F2DDE00523DE037
:10208C002AD00001C90EC46F73EC06F034D0CA0E0E
:10209C000001C46F73EC06F02ED0CB0E0001C46FA0
:1020AC0073EC06F028D0CC0E0001C46F73EC06F074
:1020BC0022D0FF0E0001B66FFF0EB76FF2DD16DCFB
:1020CC009C0E0C6ED70E0D6E0D2EFED70C2EFCD763
:1020DC00FF0011D010D03C501E0AD3E03C501F0A18
:1020EC00D6E03C50200AD9E03C50210ADCE03C50C0
:1020FC00270ADFE0EFD72C6A41D000012C0EB66F17
:10210C00000EB76F4E0EB86F000EB96F080EBA6F97
:10211C00080EBB6FE0DD005231E01FD00001CD0E88
:10212C00C46F73EC06F029D0CE0E0001C46F73ECB3
:10213C0006F023D0CF0E0001C46F73EC06F01DD057
:10214C00D00E0001C46F73EC06F017D0D10E000155
:10215C00C46F73EC06F011D010D03C501E0ADEE0B8
:10216C003C501F0AE1E03C50200AE4E03C50210ABC
:10217C00E7E03C50220AEAE0EFD7346A070E0B6E18
:10218C00170E0C6E6A0E0D6E0D2EFED70C2EFCD794
:10219C000B2EFAD7000035D0B5B033D08194819E88
:1021AC00C4A223D000017D51000A00E0C4B01DD0B0
:1021BC0056C040F557C041F57DC042F57EC043F591
:1021CC007FC044F580C045F581C046F582C047F517
:1021DC00400EB66F050EB76F080EB86F57DD005284
:1021EC0001E1F6D77D51000A00E1020E0B6ED40E10
:1021FC000C6E850E0D6E0D2EFED70C2EFCD70B2EF5
:06220C00FAD7A2D6FFD7AD
:1023A20010EE2CF02C0E006E010E016ED50EF66EA4
:0E23B200220EF76E000EF86EA9EC0EF012006F
:102212000142003E3C3A3B450043413F3D2B35677E
:1022220000E2E100E0141E0000001D16041A1F0067
:1022320000061B0708212000002C1909171522008F
:102242000011050B0A1C23000000100D18242500A4
:1022520000360E0C122726000037380F33132D00DC
:10226200000034002F2E000039E528300031000034
:102272000000000000002A000059005C5F85000099
:1022820062635A5D5E60295344575B56556147004D
:042292000000004008
:1022960005010906A101050719E029E71500250131
:1022A60075019508810295017508810195057501ED
:1022B60005081901290591029501750391019506F5
:0F22C6007508150025650507190029658100C0F9
:1022D50000000000000000000000000000000000F9
:0122E50000F8
:1022E6000A0B0D180B091919050B0D07091C051703
:0122F60032B5
:0822F700080F090E171C051762
:0122FF0000DE
:0123000000DC
:1023010009022900010100C0320904000002030191
:102311000100092101010001223F0007058103405D
:09232100000A0705010340000A4F
:10232A005A58694D6C4A7049714C7251744F7552C2
:10233A007A4E7C467D4B7E4814E411E627E71FE37C
:04234A006B504A5436
:10234E00200355005300420020004D0061006E0036
:10235E006900700075006C00610074006F007200FF
:10236E001603540055002000470061006200720001
:06237E006F0076006F0005
:1023840012010002000000080644060001000102D8
:02239400000146
:08239600010204081020408040
:04239E000403090427
:020000040030CA
:0E000000000C1F1EFF8381FF0FC00FE00F409A
:00000001FF
