:04000000BEEF14F04B
:020006001200E6
:1000080000C01EF001C01DF002C01CF003C01BF0B0
:1000180004C01AF005C019F008C018F009C017F09C
:100028000AC016F00BC015F0D9CF29F0DACF2AF0A4
:10003800E1CF27F0E2CF28F0E9CF25F0EACF26F08C
:10004800F3CF23F0F4CF24F0F5CF22F0F8CF1FF050
:10005800F7CF20F0F6CF21F01BEC12F0C0EC13F034
:1000680015EC14F022C0F5FF1FC0F8FF20C0F7FF01
:1000780021C0F6FF23C0F3FF24C0F4FF1EC000F028
:100088001DC001F01CC002F01BC003F01AC004F030
:1000980019C005F018C008F017C009F016C00AF01A
:1000A80015C00BF025C0E9FF26C0EAFF27C0E1FF15
:0E00B80028C0E2FF29C0D9FF2AC0DAFF1100DC
:1000C60025C204F026C205F023C202F024C203F0C2
:1000D60027C200F00201270700520FE004C0E9FF23
:1000E60005C0EAFF02C0E1FF03C0E2FFEECFE6FF74
:1000F600024A032A044A052AEBD723C200F024C287
:0401060001F01200F2
:10010A0002011F6B206B1AC201F01BC202F01CC253
:10011A0003F0000E046E000E006E041808E1005091
:10012A00031805E10050021802E10150000A65E0D7
:10013A001AC205F01BC206F01CC207F005C0F6FF82
:10014A0006C0F7FF07C0F8FF0900F5CF01F001501C
:10015A00000A07E0202B010E0526000E06220722C0
:10016A00EDD720C200F000360090020E002600C033
:10017A0020F21AC205F01BC206F01CC207F01F517A
:10018A001D25E16E000E1E21E26E00C0E6FF1F2B48
:10019A001F511D25E16E000E1E21E26E030EE66E52
:1001AA001F2B05C0F6FF06C0F7FF07C0F8FF0900BE
:1001BA00F5CF01F00150000A20E01F511D25E16E24
:1001CA00000E1E21E26E05C0F6FF06C0F7FF07C04B
:1001DA00F8FF0900F5CF00F000C0E6FF1F2B010E63
:1001EA000526000E062207221F511D25E16E000E6C
:0C01FA001E21E26EE66A1F2BD4D7120013
:1002060002011AAF07D0E90E1E6F000E1F6F020E15
:10021600206F05D0650E1E6F000E1F6F206B0A0E35
:100226001E25D96E000E1F21DA6EDE502025036EC4
:10023600046A000E042203C000F004C001F0003678
:1002460000900136003600900136000E00241C6F27
:10025600040E01201D6F050E1E25E96E000E1F21DE
:10026600EA6EEECF01F0EECF02F0000E006E025005
:10027600005C03E101500001615D06E261C021F20C
:10028600000E0201226F0BD00201050E1E25E96E3B
:10029600000E1F21EA6EEECF21F2EECF22F2C00E43
:1002A600236F040E246F010E1E25E96E000E1F211A
:1002B600EA6EEECF25F2EECF26F221C227F200DF5C
:1002C600020E1C25E16E000E1D21E26EC00E006EB0
:1002D600040E016E00C0E6FF01C0E6FF010E1C25FC
:1002E600E16E000E1D21E26E21C2E6FF030E22150D
:1002F600036E1EC2E9FF1FC2EAFFEECF02F0060E32
:10030600016E02C000F0015004E000360090FF0FBD
:10031600FBD7035000121CC2E1FF1DC2E2FF1B51B6
:060326000010E66E12005B
:10032C00016A026A02012051025C02E11F51015C68
:10033C0017E201501D25E16E02501E21E26E0150A4
:10034C001A25F66E02501B21F76E000E1C21F86E5A
:10035C000900F5CF00F000C0E6FF014A022AE2D7FF
:02036C0012007D
:10036E000B6A0A6A096A00500402F4CF09F0F3CF4F
:10037E0008F001500502F4CF0BF0F3CF0AF0005055
:10038E000502F3500926F4500A22E86A0B220150A6
:10039E000402F3500926F4500A22E86A0B2208C020
:1003AE0000F009C001F00AC002F00BC003F0120009
:1003BE00C00E0001666F040E676F080E686F000EA8
:1003CE00696F080E6A6F000E6B6F656B02011A6B18
:0803DE008C0E1B6F11DF1200F1
:1003E60075D0220E006E300E016E000E026E00C039
:1003F6001AF201C01BF202C01CF2810E02011D6F2F
:10040600010E1E6F00C0F6FF01C0F7FF02C0F8FF25
:100416000900F5CF1FF2000E206F85DF810E006EFA
:10042600010E016E67D0BF0E1A6F2F0E1B6F000EE6
:100436001C6F810E1D6F010E1E6F64DE810E006E35
:10044600010E016E57D0F70E1A6F2F0E1B6F000E9E
:100456001C6F810E1D6F010E1E6F54DE810E006E25
:10046600010E016E47D0070E1A6F300E1B6F000E7D
:100476001C6F810E1D6F010E1E6F44DE810E006E15
:10048600010E016E37D0A80E1A6F2F0E1B6F000ECD
:100496001C6F810E1D6F010E1E6F34DE810E006E05
:1004A600010E016E27D08E0E1A6F2F0E1B6F000ED7
:1004B6001C6F810E1D6F010E1E6F24DE810E006EF5
:1004C600010E016E17D0006A016A14D0020119519B
:1004D600000A87E01951010AA6E01951020AB3E0A1
:1004E6001951030AC0E01951040ACDE01951050A51
:0604F600DAE0E9D7120074
:1004FC0060D0D50E006E2F0E016E000E026E00C085
:10050C001AF201C01BF202C01CF2810E02011D6F17
:10051C00010E1E6F00C0F6FF01C0F7FF02C0F8FF0E
:10052C000900F5CF1FF2000E206FFADE810E006E6F
:10053C00010E016E49D0190E006E2F0E016E000EC9
:10054C00026E00C01AF201C01BF202C01CF2810E36
:10055C001D6F010E1E6F020E0024F66E000E0120A0
:10056C00F76E000E0220F86E0900F5CF04F0030EB2
:10057C000024F66E000E0120F76E000E0220F86EBD
:10058C000900F5CF03F003C001F0006A0450002409
:10059C001F6F000E0120206FC3DE810E006E010E56
:1005AC00016E12D011C219F218DF0ED0006A016A66
:1005BC000BD002011051010A9CE01051020ABBE061
:0A05CC001051030AEFE0F2D712000D
:1005D6000F0E02011015166F176B186B10AF06D0B1
:1005E600E90E146F000E156F178305D0650E146F94
:1005F600000E156F17850B0E006E000E016E16C2EB
:1006060004F0000E056EB0DE1451002615510122CD
:1006160000C014F201C015F2070E0024E16E000EB0
:100626000120E26E11C2E6FF14C2E1FF15C2E2FF2D
:10063600E66A080E1425E16E000E1521E26E12C25E
:10064600E6FF13C2E6FF17871151010AD8A41789DE
:10065600700E016E0F0E026E16510126D8B0022AD8
:1006660001C0E9FF02C0EAFF1751EE10006E01C09B
:0C067600E1FF02C0E2FF00C0E6FF12003E
:1006820007D0C38210D0C3920ED0C3920CD00BD02D
:1006920002011051050AF5E01051060AF4E010516A
:0806A200070AF3E0F4D712008F
:1006AA00E90E006E000E016E010E0024E16E000ECE
:1006BA000120E26E10C2E6FF11C2E6FF030E00241B
:1006CA00E16E000E0120E26E12C2E6FF13C2E6FFDF
:1006DA00050E0024E16E000E0120E26E12C2E6FF52
:1006EA0013C2E6FF00C0E1FF01C0E2FF010EE66EA1
:0606FA00020E5F6E12000B
:06070000040E5F6E120002
:100706000001EA6BEB6BEC6BED6BEE6BEF6B010EC6
:10071600E96F800E02011A6F840E1B6F71DD4CDECD
:020726001200BF
:1007280009C2EAF00AC2EBF00BC2ECF00CC2EDF021
:0E0738000BC2EEF00CC2EFF0020E5F6E12006C
:1007460002010B6B0C6B09C2E9FF0AC2EAFFEECF8E
:1007560000F0600E00140F6F2DD1010E09250D6FEC
:10076600000E0A210E6F31D0020E0925E96E000E29
:100776000A21EA6EEECF51F0C0DF58D0510E106F4D
:10078600000E116F010E126F000E136F8BDF4ED02D
:10079600020E0925E96E000E0A21EA6EEECF03F07D
:1007A600EECF04F004C000F0016A00C052F0A5DFED
:1007B6003DD0520E106F000E116F010E126F000E1B
:1007C600136F70DF33D09CDFFDD00DC2E9FF0EC280
:1007D600EAFFEECF01F0000E000A02E10B0E01184F
:1007E600C3E00DC2E9FF0EC2EAFFEECF01F0000E34
:1007F600000A02E1030E0118C1E00DC2E9FF0EC2B4
:10080600EAFFEECF01F0000E000A02E10A0E01181F
:10081600BFE00DC2E9FF0EC2EAFFEECF01F0000E07
:10082600000A02E1020E0118C4E0CDD7CBD0010EBA
:1008360009250D6F000E0A210E6FA5D0020E09259F
:10084600E96E000E0A21EA6EEECF03F0EECF04F059
:1008560004C001F0026A0250000A02E1220E0118E9
:1008660033E1060E0925E96E000E0A21EA6EEECF87
:1008760001F0EECF02F001C00BF202C00CF2000E46
:10088600006E0250005C02E101503F0804E23F0E98
:100896000B6F000E0C6FDA0E1A6F2E0E1B6F000E0A
:1008A6001C6F810E1D6F010E1E6F0BC21FF20CC254
:1008B60020F239DD810E106F010E116F0BC212F29C
:1008C6000CC213F2EFDE4AD0020E0925E96E000EC5
:1008D6000A21EA6EEECF03F0EECF04F004C001F079
:1008E600026A000E021802E1210E011837E1060E17
:1008F6000925E96E000E0A21EA6EEECF01F0EECF71
:1009060002F001C00BF202C00CF2000E006E0250A3
:10091600005C02E10150090804E2090E0B6F000EAB
:100926000C6F190E1A6F2F0E1B6F000E1C6F120E16
:100936001A27000E1B231C23810E1D6F010E1E6F2E
:100946000BC21FF20CC220F2EEDC810E106F010EFC
:10095600116F0BC212F20CC213F2A4DE2AD0500E93
:10096600106F000E116F010E126F000E136F9ADEDC
:1009760020D0020E0925E96E000E0A21EA6EEECF9E
:1009860050F0BBDE16D00DC2E9FF0EC2EAFFEE50F4
:10099600060AD8B453D70DC2E9FF0EC2EAFFEE50DD
:1009A6000A0ADDE00DC2E9FF0EC2EAFFEE500B0AAD
:1009B600E0E008D00F51200AD8B4CFD60F51000A74
:0609C600D8B435D7120081
:1009CC00020E0201106F09C211F2000E126F136BAE
:1009DC00146B8EDD00C00CF201C00DF2020E00246F
:1009EC00E96E000E0120EA6EEECF05F0030E002436
:1009FC00E96E000E0120EA6EEECF03F0000E046EDD
:100A0C0003C001F0006A055000240A6F000E01209B
:100A1C000B6F010E0C25E96E000E0D21EA6EEE50E7
:100A2C00050A2FE1020E0C25E96E000E0D21EA6E6F
:100A3C00EECF10F2030E0C25E96E000E0D21EA6EBE
:100A4C00EECF06F0040E0C25E96E000E0D21EA6EB9
:100A5C00EECF05F0050E0C25E96E000E0D21EA6EA9
:100A6C00EECF03F0000E046E03C001F0006A0550D7
:100A7C000024126F000E0120136F030E0614116F69
:100A8C00A4DD0CC2D9FF0DC2DAFFDE500A5D006E88
:100A9C00000E0B59016E00C00AF201C00BF200509F
:100AAC0001100AE00CC2E9FF0DC2EAFFEECF00F024
:100ABC0000500C27000E0D230A510B11AAE1100E49
:0A0ACC005D6E050E106FD7DD1200FD
:100AD60001C2E9FF02C2EAFFEECF00F01F0E0014CA
:100AE6000201006F7ED06DC107F2000E086F85D03F
:100AF600076B086B82D0040E0125056E000E0221DD
:100B0600066E05C0E9FF06C0EAFF0F0EEE14016E81
:100B160001C0FFF101C003F0000E046E0336043677
:100B2600039003360436039003C000F004C001F0BE
:100B3600003600900136003600900136000E002483
:100B4600036F040E0120046F05C0E9FF06C0EAFF2B
:100B5600EECF02F0EECF03F002AE09D0E90E056F3C
:100B6600000E066F080E0327000E042304D0650E40
:100B7600056F000E066F0B0E006E000E016EFFC1B4
:100B860004F0000E056EB7EC01F005510026065183
:100B9600012200C005F201C006F200C0E9FF01C053
:100BA600EAFFEECF03F003C000F0000E016E003640
:100BB600009001360036009001360351002604519C
:100BC600012200C003F201C004F200C0E9FF01C027
:100BD600EAFFEECF00F0076B00B4072B000E086F9C
:100BE6000CD00051000AD8B47ED70051010AD8B4FF
:100BF6007FD70051020AD8B47ED7070E096F020EBE
:0E0C06000A6F020E0B6F000E0C6F8BDD1200DA
:100C14000B0E006E000E016EE5C104F0000E056EB1
:100C2400B7EC01F0E90E0026000E012200C0EAF143
:100C340001C0EBF1010E0024E16E000E0120E26E12
:100C4400E6C1E6FFE7C1E6FF030E0101EA25E16E16
:100C5400000EEB21E26EE8C1E6FFE9C1E6FF050EF6
:100C6400EA25E16E000EEB21E26EE8C1E6FFE9C180
:100C7400E6FFE5C100F0000E016E0036013600907B
:100C8400003601360090020E0026000E01220A0EE4
:100C9400EA25D96E000EEB21DA6EDE500024036ED5
:100CA400000E0120046E03C000F004C001F0003601
:100CB40000900136003600900136000E0026040E26
:100CC400012200C0ECF101C0EDF1020E0024E16E3E
:100CD400000E0120E26EE6C1E6FFE7C1E6FF010E69
:100CE400EC25E16E000EED21E26EE8C1E6FFE9C1FC
:100CF40000F0016A030E0014036EEAC1E9FFEBC1C0
:100D0400EAFFEECF02F0060E016E02C000F00150C1
:100D140004E000360090FF0FFBD703500012ECC133
:0E0D2400E1FFEDC1E2FF880E0010E66E120046
:100D3200010E02010125E96E000E0221EA6EEE505B
:100D4200030A03E1010E006F01D0006B01C2E9FF4B
:100D520002C2EAFFEECF00F01F0E0014076F1DD192
:100D6200020E0125E96E000E0221EA6EEECF01F0BD
:100D7200EECF02F0000E021802E1010E011817E197
:100D8200040E5F6E005307E0020E01016D11006E4A
:100D920000C06DF10BD00101FD0E6D15006E00C09B
:100DA2006DF101C209F202C20AF2CCDC1BD00201CF
:100DB200005316E0020E0125E96E000E0221EA6ED2
:100DC200EECF01F0EECF02F0000E021802E1020EA9
:100DD200011805E101C209F202C20AF2B3DC02D033
:100DE200060E5F6EE6D001C209F202C20AF2AADC66
:100DF200E0D0020E0125E96E000E0221EA6EEECF6E
:100E020001F0EECF02F0000E021802E1000E01180E
:100E1200D8A4BCD0040E0125E96E000E0221EA6EB0
:100E22000F0EEE14006EEECF01F0000E0116005010
:100E32000110D8B4A8D0040E0125056E000E0221BF
:100E4200066E05C0E9FF06C0EAFF0F0EEE14016E42
:100E520001C0FFF101C003F0000E046E0336043638
:100E6200039003360436039003C000F004C001F07F
:100E7200003600900136003600900136000E002444
:100E8200036F040E0120046F05C0E9FF06C0EAFFEC
:100E9200EECF02F0EECF03F002AE04D0080E03272D
:100EA200000E0423005322E003C2E9FF04C2EAFF5A
:100EB20003C2E1FF04C2E2FF840EEE12040E032518
:100EC200016E000E0421026E01C003F202C004F2A0
:100ED20001C0E9FF02C0EAFF840EEE10006E01C0FD
:100EE200E1FF02C0E2FF00C0E6FF4DD003C2E9FF0E
:100EF20004C2EAFF03C2E1FF04C2E2FF7B0EEE1668
:100F0200040E0325016E000E0421026E01C003F2DD
:100F120002C004F201C0E9FF02C0EAFF7B0EEE1438
:100F2200006E01C0E1FF02C0E2FF00C0E6FF040E56
:100F32000125E96E000E0221EA6EEECF02F0EECF3D
:100F420003F002AE05D0E90E056F000E066F04D065
:100F5200650E056F000E066F0B0E006E000E016E21
:100F6200FFC104F0000E056EB7EC01F0055100263A
:100F72000651012200C005F201C006F200C0E1FFE5
:100F820001C0E2FFE66A040E5F6E06D001C209F2FA
:100F920002C20AF2A3EC03F00CD00751000AD8B443
:100FA200DFD60751010AD8B41ED70751020AD8B4B6
:040FB20020D7120032
:100FB600020E02010125E96E000E0221EA6EEECF55
:100FC60001F001C0FFF101500001625D03E2060E6F
:100FD6005F6E2AD05D50080A11E10101FF51000A37
:100FE60003E1040E5F6E07D0100E5D6E040E5F6E99
:100FF600FFC109F2E8DCFFC163F016D05D50100AAC
:1010060011E10101FF51000A05E1080E5D6E040EB3
:101016005F6E05D0040E5F6EFFC109F2D4DCFFC11E
:0A10260063F002D0060E5F6E1200A8
:10103000020E02010125E96E000E0221EA6EEECFDA
:1010400001F0EECF02F002C007F2086B91D0010E62
:10105000106F116B126B136B146B7EEC02F000C0FF
:1010600003F201C004F26E50000A05E1080E056F9C
:10107000000E066F0AD003C2E9FF04C2EAFFEECFFA
:1010800005F2000E066F000E066F86D0020E0125D7
:10109000E96E000E0221EA6EEECF01F001C0FFF111
:1010A00001500001625D03E2060E5F6E99D0020EF0
:1010B0000201106FFFC111F2000E126F136B146B5F
:1010C0007EEC02F000C003F201C004F2020E002424
:1010D000E96E000E0120EA6EEECF05F0030E00244B
:1010E000E96E000E0120EA6EEECF03F0000E046EF2
:1010F00003C001F0006A05500024056F000E0120B6
:10110000066F4AD0030E106F020E0125E96E000E25
:101110000221EA6EFF0EEE14116FEECF12F2000EF6
:101120001217040E0125E96E000E0221EA6EEECFC1
:1011300013F2EECF14F27EEC02F000C003F201C015
:1011400004F2000E011802E1000E001803E1060E81
:101150005F6E46D003C2E9FF04C2EAFFEECF05F29C
:10116000000E066F000E066F17D0060E5F6E38D0A9
:10117000000E081902E1010E0719D8B468D7000E55
:10118000081902E1020E071981E0000E081902E1B8
:10119000030E0719B7E0E9D7060E0125D96E000E38
:1011A0000221DA6EDECF01F0DECF02F00651025CE2
:1011B00002E10551015C0AE2060E0125E96E000E0E
:1011C0000221EA6EEECF05F2EECF06F203C209F27B
:1011D00004C20AF205C20BF206C20CF294EC03F050
:0211E0001200FB
:1011E200016A0150050812E3570EE96E000EEA6E1D
:1011F2000150E926D8B0EA2AEE500101FB1904E1B8
:101202000150010F006E03D0012AEBD7006A1200D1
:1012120093D0B5B201D00BD10101FCB102D08090C4
:1012220001D08080FCB102D0829401D08284FFD0B0
:10123200B5B201D0FCD00101FCB102D0809201D044
:101242008082FCB102D0829401D08284F0D0B5B207
:1012520001D0EDD00101FCB102D0809401D0808494
:10126200FCB102D0829401D08284E1D0B5B201D027
:10127200DED00101FCB102D0809601D08086FCB1A3
:1012820002D0829401D08284D2D0B5B201D0CFD024
:101292000101FCB102D0809A01D0808AFCB102D057
:1012A200829401D08284C3D0B5B201D0C0D00101F2
:1012B200FCB102D0819C01D0818CFCB102D082941D
:1012C20001D08284B4D0B5B201D0B1D00101FCB159
:1012D20002D0819A01D0818AFCB102D0829401D0DD
:1012E2008284A5D0FCB102D0829001D08280FCB170
:1012F20002D0829401D082849AD0FCB102D0829230
:1013020001D08282FCB102D0829401D082848FD03B
:10131200B5B201D08CD0FCB102D0819801D08188C5
:10132200FCB102D0829401D0828481D0B5B201D0C6
:101332007ED0B5907CD07BD00101FB513E0AD8B45F
:1013420068D7FB511E0AD8B467D7FB51590AD8B4E3
:1013520063D7FB513F0AD8B46BD7FB511F0AD8B4ED
:101362006AD7FB515A0AD8B466D7FB51400AD8B49F
:101372006ED7FB51200AD8B46DD7FB515B0AD8B4A3
:1013820069D7FB51410AD8B471D7FB51210AD8B4AD
:1013920070D7FB515C0AD8B46CD7FB51420AD8B45F
:1013A20074D7FB51220AD8B473D7FB515D0AD8B463
:1013B2006FD7FB51430AD8B477D7FB51240AD8B46C
:1013C20076D7FB515F0AD8B472D7FB51440AD8B41E
:1013D2007AD7FB51250AD8B479D7FB51600AD8B421
:1013E20075D7FB51260AD8B47DD7FB51610AD8B410
:1013F20079D7FB51270A81E0FB51620AD8B47DD725
:10140200FB51450A85E0FB51280A85E0FB512C0A75
:1014120082E0FB51580AD8B47ED7FB513C0A86E0E1
:10142200FB51290A86E0FB514A0A83E084D7120065
:10143200E0C1E5F1E1C1E6F1E2C1E7F1E3C1E8F1C2
:0A144200E4C1E9F10AEC06F0120023
:10144C00E0C100F00032009E0032009E0032009E8F
:10145C000032009E00500101E019026E02C0E0F162
:10146C0002C000F00032009E0032009E0050021AB2
:10147C0002C0E0F102C000F00032009E0250001ADF
:0C148C0000C0E0F1010E0016001E12006E
:10149800026A200E025C18E22E0EE16E000EE26E69
:1014A8000250E126D8B0E22A0250010F006E016A0C
:1014B800000E01222E0E0024E96E000E0120EA6EB5
:1014C800EECFE6FF022AE5D7220E4E14016E015038
:1014D800000A05E0800E0101FB114D6E02D0FBC130
:0414E8004DF01200B1
:0414EC00C3841200A3
:1014F000010E0101FB25FD6F000EFC21FE6F65D082
:10150000FBC101F2FCC102F26BEC05F0ACD0FBC1F7
:1015100001F2FCC102F20DDCA6D0020E0101FB2596
:10152000006E000EFC21016E00C0E9FF01C0EAFF61
:10153000EECF64F000C0E9FF01C0EAFFEECF02F099
:10154000EECF03F0000E031802E1000E021803E0D4
:10155000080E5D6E02D0040E5D6E040E5F6E83D0C9
:10156000FBC1E9FFFCC1EAFFEECF00F01F0E001443
:10157000016E0150000A06E1FBC101F2FCC102F25A
:1015800057DD06D0FBC109F2FCC10AF2A3EC03F05F
:101590006AD00201630E096F000E0A6F010E0B6F15
:1015A000000E0C6F94EC03F05ED0FBC101F2FCC1A5
:1015B00002F201DD58D0FBC109F2FCC10AF2A3EC32
:1015C00003F051D0060E5F6E4ED0FDC1E9FFFEC1A3
:1015D000EAFFEE50000A94E0FDC1E9FFFEC1EAFF18
:1015E000EE50010A94E0FDC1E9FFFEC1EAFFEE50B2
:1015F000030A8DE0FDC1E9FFFEC1EAFFEE50050AD6
:101600008CE0FDC1E9FFFEC1EAFFEE50060AA8E04A
:10161000FDC1E9FFFEC1EAFFEE50080ABAE0FDC1D4
:10162000E9FFFEC1EAFFEE50090ABFE0FDC1E9FF94
:10163000FEC1EAFFEE50070ABEE0FDC1E9FFFEC1B0
:10164000EAFFEE500C0AB7E0FDC1E9FFFEC1EAFF78
:10165000EE500A0AB0E0FDC1E9FFFEC1EAFFEE501C
:081660000B0AA9E0AFD712004C
:1016680016D00001EA6BEB6BEC6BED6BEE6BEF6B7E
:101678000001010EE96F800E02011A6F880E1B6FC0
:1016880003EC01F017D016D083EC03F013D0000E52
:10169800000A02E1040E5F18E4E0000E000A02E10D
:1016A800020E5F18E5E0000E000A02E1030E5F1863
:0616B800EAE0EAD712008F
:1016BE00E0C102F0E1C103F0E3C100F0E4C101F0CA
:1016CE00010E0101E35F000EE45B0050011009E022
:1016DE0002C0E1FF03C0E2FFE2C1E6FF024A032AB5
:0C16EE00EBD7E0C100F0E1C101F01200F8
:1016FA00700E536E0F0E546E556A566A000E565C83
:10170A0002E10C0E555C0AE253C0E1FF54C0E2FF4D
:0E171A00E66A534A542A554A562AF0D712005E
:0E172800ACB202D00000FCD7E0C1ADFF120051
:10173600000E536E040E546E556A566A000E565CC1
:1017460002E1C00E555C0AE253C0E1FF54C0E2FF5D
:10175600E66A534A542A554A562AF0D75D0E536E06
:10176600000E546E556A566A010E565C02E1110E61
:10177600555C0AE253C0E1FF54C0E2FFE66A534AF1
:0A178600542A554A562AF0D71200E3
:101790000B0E006E000E016ED9C104F0000E056E36
:1017A000B7EC01F0650E0026000E012200C0DCF14E
:1017B00001C0DDF1010E0024E16E000E0120E26E99
:1017C000DAC1E6FFDBC1E6FF030E0101DC25E16EB5
:1017D000000EDD21E26E080EDC25E96E000EDD2133
:1017E000EA6EEECFE6FFEECFE6FF050EDC25E16EFA
:1017F000000EDD21E26E080EDC25E96E000EDD2113
:10180000EA6EEECFE6FFEECFE6FFD9C100F0000EA4
:10181000016E0036013600900036013600900A0E47
:10182000DC25D96E000EDD21DA6EDE500024036E59
:10183000000E0120046E03C000F004C001F0003669
:1018400000900136003600900136000E0026040E8E
:10185000012200C0DEF101C0DFF1020E0024E16EC2
:10186000000E0120E26E010EDC25E96E000EDD2186
:10187000EA6EEECFE6FFEECFE6FF010EDE25E16E6B
:10188000000EDF21E26E080EDC25E96E000EDD2180
:10189000EA6EEECFE6FF080EDC25E96E000EDD21D4
:1018A000EA6EEECF03F0EECF04F004C000F0016A60
:1018B000030E0014036EDCC1E9FFDDC1EAFFEECFC9
:1018C00002F0060E016E02C000F0015004E0003686
:1018D0000090FF0FFBD703500012DEC1E1FFDFC114
:0A18E000E2FF880E0010E66E120011
:1018EA006B6A6A6A696A686A03DF160E6F6E6E6AE5
:1018FA001DDF9F0E6B6E7B0E696E6D8C6D9C160ED6
:0C190A00706E080E6D6E5D6A5F6A120060
:10191600A6A202D00000FCD7A69CD9C1A9FFDAC1B5
:10192600A8FFA69EA684F2CF00F0F29E550EA76EE3
:10193600AA0EA76EA68200BE02D0F29E01D0F28E3B
:04194600A694120051
:10194A00F250026EF29E0500FF6A0150FE6E0050D0
:08195A00FD6E02BEF28E1200C8
:10196200A69CD9C1A9FFA69EA680A8CF00F012000E
:10197200DAC140F52CC041F5D9C142F5430E01014F
:10198200E06F050EE16FE26B050EE36F000EE46F90
:1019920095DE010EE06F400EE16F050EE26F080E5C
:0A19A200E36F000EE46F44DD120055
:0619AC005DC000F0120016
:1019B200400E0101E06F050EE16FE26B080EE36F6E
:1019C200000EE46F7BDE010EE06F400EE16F050E4C
:0E19D200E26F080EE36F000EE46F2ADD1200D4
:1019E000010180510B0A31E1D9C17EF1D9C1E0F189
:1019F0002DDD00B002D0C49801D0C488F096819249
:101A0000808893929298070E0B6E170E0C6E6A0EDA
:101A10000D6E0D2EFED70C2EFCD70B2EFAD7000024
:101A20008098100E0C6E940E0D6E0D2EFED70C2E9F
:101A3000FCD7000081829382C4860A0E806FF090EA
:0E1A4000F086CA84010E006E01D0006A12000A
:101A4E00080E0C6EC10E0D6E0D2EFED70C2EFCD791
:061A5E0000000000120070
:101A6400C1C1E9FFC2C1EAFFEECF00F03C0E001491
:101A7400016E01C006F00632069E0632069E06C0BE
:101A8400F7F1010E0101C125E96E000EC221EA6ED3
:101A9400EECF05F0C1C1E9FFC2C1EAFFEECF00F00D
:101AA400000E016E030E0014036E01C004F0000E5C
:101AB400041603C001F0006A00500510F86F000E10
:101AC4000110F96F06500D0A42E17F0E040108155A
:101AD400006E00C008F47F0E0C15006E00C00CF4FC
:101AE400C7C1E9FFC8C1EAFFEECF00F0C7C1E1FFFB
:101AF400C8C1E2FF7F0E0014E66EC90E0201236F17
:101B0400010E246FC00E256F040E266F080E276F7A
:101B140063EC00F000C0F5F101C0F6F100C0E9FF8C
:101B240001C0EAFF600EEE14016E0150000A06E1E6
:101B3400F5C1FBF1F6C1FCF1D9DC06D0F5C109F21F
:101B4400F6C10AF2A3EC03F06D988CDDA2D1010179
:101B5400F751010AD8A4BFD0000E000A02E1050E15
:101B64005F1804E15F6ADFEC01F0B4D0000E000AF4
:101B740002E1030E5F18D8A4ADD0010E0101C52502
:101B8400E96E000EC621EA6EEECF23F2EECF24F208
:101B9400C00E0201256F040E266FF8C127F263EC14
:101BA40000F0050E0101C525026E000EC621036E6C
:101BB40002C0E9FF03C0EAFFF851EE5C006EF95180
:101BC400EE58016E02C0E1FF03C0E2FF00C0E6FF71
:101BD40001C0E6FF010EC525026E000EC621036E8C
:101BE40002C0E9FF03C0EAFFF851EE24006EF95188
:101BF400EE20016E02C0E1FF03C0E2FF00C0E6FF79
:101C040001C0E6FF030EC525026E000EC621036E59
:101C140002C0E9FF03C0EAFFF851EE24006EF95157
:101C2400EE20016E02C0E1FF03C0E2FF00C0E6FF48
:101C340001C0E6FF000EF95D04E1000161510101FC
:101C4400F85D2EE2E90EF36F000EF46F010EF3253A
:101C5400E16E000EF421E26EC00EE66E040EE66E36
:101C6400030EF325E16E000EF421E26EE66AE66AE5
:101C7400050EF325E16E000EF421E26EE66AE66AD3
:101C8400F3C1E1FFF4C1E2FF010EE66E800E020132
:101C94001A6F880E1B6F03EC01F0040E5F6E13D0F5
:101CA4000201C5C1E9FFC6C1EAFFEECF00F0C5C11C
:101CB400E1FFC6C1E2FF010E0018E66E1A6B880E42
:101CC4001B6F03EC01F00101FB6BF8C1FCF1F9C1DE
:101CD400FDF10ADCDED00101FA6B050EC525E96EC3
:101CE400000EC621EA6EEECF01F0EECF02F0000E38
:101CF400021803E10001615101180DE1000E006EAC
:101D04000101D051005C03E1CF510001615D03E2A8
:101D1400010E0101FA6F0101050EC525026E000EC8
:101D2400C621036E02C0E9FF03C0EAFFF851EE5C6E
:101D3400006EF951EE58016E02C0E1FF03C0E2FFEC
:101D440000C0E6FF01C0E6FF010EC525026E000ECD
:101D5400C621036E02C0E9FF03C0EAFFF851EE2476
:101D6400006EF951EE20016E02C0E1FF03C0E2FFF4
:101D740000C0E6FF01C0E6FF050EC525E96E000EB2
:101D8400C621EA6EEECF01F0EECF02F0000E006E37
:101D94000250005C02E10150000815E3050EC52560
:101DA400E96E000EC621EA6EEECF01F0EECF02F02E
:101DB400000E021802E1000E011804E1FA51010AB2
:101DC40001E101D015D0C5C1E9FFC6C1EAFFEECFDC
:101DD40000F0C5C1E1FFC6C1E2FF010E0018E66EC6
:101DE400800E02011A6F880E1B6F03EC01F04DD0B8
:101DF4000201800E1A6F840E1B6F03EC01F0000EBB
:101E0400000A02E1020E5F1832E1050E5F6E650EF4
:101E14000101F36F000EF46F010EF325E16E000E65
:101E2400F421E26EC00EE66E040EE66E030EF32598
:101E3400E16E000EF421E26E080EE66E000EE66E10
:101E4400050EF325E16E000EF421E26E080EE66E37
:101E5400000EE66EF3C1E1FFF4C1E2FF010EE66E8F
:101E640002011A6B880E1B6F03EC01F00ED0000EFA
:101E7400000A02E1040E5F1808E15D50080A02E15D
:101E840064C06EFF5F6ADFEC01F00101FB6B03ECE1
:041E940000F0120048
:0A1E9800CA949E92FA0ECB6E12005F
:101EA2000101F56B1FD1C48236D1C48434D1100E26
:101EB2004F18006EF00E00164F50001A00C04FF07F
:101EC2002AD1300E4F18006EF00E00164F50001A35
:101ED20000C04FF020D1400E4F18006EF00E0016D9
:101EE2004F50001A00C04FF016D1200E4F18006E4E
:101EF200F00E00164F50001A00C04FF00CD1F351F3
:101F02000008D8B0EED0840EF35DD8B0EAD0C4A2F7
:101F120040D0F46B120EF45D3AE2F4C100F0000E10
:101F2200016E026E036E00360090013602360336F1
:101F32006A0E0024F66E2F0E0120F76E000E0220AC
:101F4200F86E0900F5CF01F00150F3191EE1F4C15A
:101F520000F0000E016E026E036E00360090013634
:101F6200023603366A0E00262F0E0122000E0222CE
:101F7200010E0024F66E000E0120F76E000E022004
:101F8200F86E0900F5CFF5F102D0F42BC3D7C49255
:101F92000ED0560EF325F66E2E0EF76E000EF722B9
:101FA200000EF86E000EF8220900F5CFF5F1F5519A
:101FB2000108D8B085D0E00EF55D2DE3F551E708B4
:101FC2002AE3C4A415D00F0EF515006E120E0024DC
:101FD200F66E300EF76E000EF722000EF86E000E4F
:101FE200F8220900F5CF00F0001E00504E1613D063
:101FF2000F0EF515006E120E0024F66E300EF76EFF
:10200200000EF722000EF86E000EF8220900F5CF3E
:1020120000F000504E12F5C1FBF1F1EC08F000C0E7
:10202200C4F100522BE0C4A428D0B5A006D0F5C15B
:10203200FBF10101FC6B09EC09F00101C405F46F2D
:10204200050EF45D18E2570EE16E000EE26EF451D9
:10205200E126D8B0E22AF451010F006E016A000EA7
:102062000122570E0024E96E000E0120EA6EEECF27
:10207200E6FFF42BE5D77F07C49422D00101060EB8
:102082007F5D1EE2570EE16E000EE26E7F51E12689
:10209200D8B0E22AF5C1E6FF7F2BB5A006D0F5C184
:1020A200FBF1010EFC6F09EC09F0040E0101F55D74
:1020B20007E3F551270804E3F5C1FBF14CEC0AF004
:1020C2007FC1F4F10101F45105080BE3570EE16EF3
:1020D200000EE26EF451E126D8B0E22AE66AF42B51
:1020E200F1D719D0F351E00AD8B4DDD6F351F00A92
:1020F200D8B4DBD6F351AA0AD8B4D9D6F351FE0A22
:10210200D8B4DFD6F351FC0AD8B4E5D6F351FA0AB3
:08211200D8B4EBD6F4D612009C
:10211A000A0E0101D26FFF0ED96F5DDC130E0B6E32
:10212A00440E0C6E440E0D6E0D2EFED70C2EFCD7EF
:10213A000B2EFAD70000D251000A3DE0F00E4F14E0
:10214A00016E0132019E0132019E0132019E01326D
:10215A00019E0150010A0CE1010E4F18006E0F0E8C
:10216A0000164F50001A00C04FF0010E006E2ED01C
:10217A00F00E4F14016E0132019E0132019E0132AE
:10218A00019E0132019E0150040A0BE1020E4F1812
:10219A00006E0F0E00164F50001A00C04FF0006A72
:1021AA0015D0D2079C0E0C6ED70E0D6E0D2EFED7D3
:1021BA000C2EFCD7C0D7F00E4F14006E00C04FF0A3
:0E21CA000F0E4F14006E00C04FF0006A12009E
:1021D8000101D36BD46BD36B200ED35D69E2D3516D
:1021E800D225D96FB1EC0CF000C0D4F10050FF0A31
:1021F80001E160D0D451000A2FE1280ED96FDA6BC3
:10220800B9EC0CF0070E0B6E170E0C6E6A0E0D6E05
:102218000D2EFED70C2EFCD70B2EFAD70000D9ECCA
:102228000CF09C0E0C6ED70E0D6E0D2EFED70C2EDC
:10223800FCD7280ED96FDA6BB9EC0CF0070E0B6ED1
:10224800170E0C6E6A0E0D6E0D2EFED70C2EFCD7D7
:102258000B2EFAD700002CD07F0ED415D96F800E24
:10226800D415DA6F060E006E005004E0DA33DA9FF8
:10227800FF0FFBD7B9EC0CF0020E0B6ED40E0C6EF0
:10228800850E0D6E0D2EFED70C2EFCD70B2EFAD711
:10229800D9EC0CF0020E0B6ED40E0C6E850E0D6E82
:1022A8000D2EFED70C2EFCD70B2EFAD7D32B94D796
:0622B800D9EC0CF012004D
:1022BE000101D46BD351D45D14E2D451D225D96F20
:1022CE00FF0EDA6F8BEC0CF0020E0C6E8D0E0D6E97
:1022DE000D2EFED70C2EFCD7000000000101D42BD2
:0422EE00E9D712001A
:1022F200280E0101726F170E736FE00E746F010EDC
:10230200756FFF0E6E6FFF0E6F6F000E706F000E17
:10231200716FFF0E766FFF0E776F000E786F000EF3
:10232200796FFF0E7A6FFF0E7B6F000E7C6F000ECF
:102332007D6FAC8A900EAB6E948E949C9EAA03D055
:08234200AECF00F0FBD7120042
:10234A00016A01500101D25D10E38274070E0B6E1F
:10235A00170E0C6E6A0E0D6E0D2EFED70C2EFCD7C4
:0E236A000B2EFAD70000012AECD78294120045
:10237800036A0101D851035C22E2D7510324006E9D
:10238800016A000E01220050D225E96E0150D321C6
:10239800EA6E7F0EEE14026E0350D425F66E000E20
:1023A800D521F76E000ED621F86E0900F5CF01F0A1
:1023B8000250011802E0006A04D0032ADAD7010E9D
:0423C800006E120091
:1023CC000900F5CFE6FF0006FBE10106F9E112007A
:1023DC000B0E0101806FF19AF090480EF0129F8263
:1023EC009E92590ECA6EFA0ECB6E9D82016A0150F6
:1023FC0005080BE3570EE16E000EE26E0150E1266C
:10240C00D8B0E22AE66A012AF2D77F6BC46A1200BE
:10241C0074C1E1FF75C1E2FFD2C1E6FF72C100F0E9
:0A242C0073C101F0A5EC0CF01200E2
:102436005D50000A07E1080E6D6E010E5D6E686A5A
:10244600020E5D6E68506914016E01A414D05EC060
:102456005DF0080E0201106F41EC03F06994FF0E67
:102466000101EE6F68A407D0EEC100F0EE0700523E
:1024760002E06894F7D768506914016E01A043D052
:1024860075EC0CF0010E0201106F116B126B136BE1
:10249600146B7EEC02F0070E0024E96E000E01209C
:1024A600EA6EEECF61F0110E0024E96E000E0120F7
:1024B600EA6EEECF62F0040E5D6E61C06DF0000E46
:1024C60000016E6F61C0F1F0000EF26F020E0201A4
:1024D600106F41EC03F0C00E0001666F040E676FCB
:1024E600080E686F000E696F080E6A6F000E6B6F3C
:1024F600656B66C002F467C003F4080E0401016F41
:102506008C0E006F689068506914016E01A80BD09C
:10251600689869845DC05EF0200E5D6E060E02014D
:10252600106F41EC03F068506914016E01AC06D0DF
:10253600689C080E0201106F41EC03F068506914A4
:10254600016E01AA03D070B07090689A6850691441
:10255600016E01A202D06A6A6892040E5D5C02E214
:10256600A19AD0D00101F16B040EF15DD8B0C9D0AB
:1025760068506914016E01A6C1D06CCF60F060C0CE
:1025860000F00032009E0032009E0032009E0F0EC8
:102596000014016E01C0F2F1689601C003F0000E4E
:1025A600046E03360436039003360436039003C0E4
:1025B60000F004C001F000360090013600360090AD
:1025C6000136000E0024C16F040E0120C26F000107
:1025D60060A50AD0E90E0101C56F000EC66F080E90
:1025E600C127000EC22305D00101650EC56F000E7E
:1025F600C66F0B0E006E000E016EF2C104F0000EE7
:10260600056EB7EC01F00050C5270150C623040E35
:10261600C125C76F000EC221C86F000160A309D093
:10262600C1C1C7F1C2C1C8F1040E0101C127000E24
:10263600C22301010A0EC525016E000EC621026ED7
:1026460001C0E9FF02C0EAFF010EEE18006E01C0EC
:10265600E1FF02C0E2FF00C0E6FFF251000A03E11B
:1026660032EC0DF04BD0000160A512D0C5C1E9FFD8
:10267600C6C1EAFFEECF00F0C5C1E1FFC6C1E2FF69
:10268600010E0018E66EF2C1FBF103EC00F036D045
:10269600010E0101C125E96E000EC221EA6EEECFE0
:1026A60005F0C1C1E9FFC2C1EAFFEECF00F0000E9E
:1026B600016E030E0014036E01C004F0000E041632
:1026C60003C001F0006A00500510EF6F000E011004
:1026D600F06FC5C1E9FFC6C1EAFFEECF00F0C5C184
:1026E600E1FFC6C1E2FF010E0018E66EF2C1FBF182
:1026F600EFC1FCF1F0C1FDF176EC0AF00101F12B1E
:0627060033D7A19A120076
:10270C000101D86BD4C101F0010E006E015004E040
:10271C0000360090FF0FFBD700C0D7F1D2C1E9FF04
:10272C00D3C1EAFF0050EE14016E0152010ED8A481
:10273C00000E006ED651001A1AE0D551000806E2C0
:10274C0027EC0DF027EC0DF0D507F7D7D2C1E9FF38
:10275C00D3C1EAFFD751EE14016E0152010ED8A479
:10276C00000E006ED651001A02E0FF0ED86FD8C1D1
:04277C0000F0120057
:10278000F0A652D0F0A050D0F090CA84C4B61ED0AB
:10279000F1BA0DD00B0E0101805D07E280510208F5
:1027A00004E2C333C39F80B8C38FF18A0ED0010106
:1027B000F19A80078051000A08E14CEC0FF0C3C188
:1027C000F3F151EC0FF00B0E806F2ED0F1BA2CD03C
:1027D0000101805102080FE280510A080CE3010E4A
:1027E0007E15006E00B002D0809801D080887E33C4
:1027F0007E9F800719D08051020A07E1C4B802D039
:10280000809801D0808880070FD08051010A03E1B1
:102810008088800709D08051000A06E10B0E806F86
:0A2820009288C4964CEC0FF01200F1
:10282A009EA20CD04CEC0FF0C4A605D0C4960101B0
:0E283A007E6B8088928801010B0E806F120069
:102848000101D66BD451D65D1AE2D651D525D96F80
:10285800D651D225E96E000ED321EA6EEECFDAF119
:102868008BEC0CF0020E0C6E8D0E0D6E0D2EFED73D
:102878000C2EFCD7000000000101D62BE3D7D45161
:0C288800D525D96FDA6B8BEC0CF0120038
:10289400070E05010015026E02C000F0003600901C
:1028A40000C003F0080E0014016E0150080A03E191
:0C28B400070E0316038003C000F01200A2
:1028C000010E0101D96F000EDA6F050EDB6FC8EC47
:0428D0000BF01200F7
:1028D4000101D56BD66BD4C140F52CC041F5D56B45
:1028E400D551050820E3D551D225E96E000ED32138
:1028F400EA6EEE50000AD8A4D62B020ED525006E3F
:10290400016A000E0122400E0024E16E050E012032
:10291400E26ED551D225E96E000ED321EA6EEECFD8
:10292400E6FFD52BDDD7010EE06F400EE16F050EFB
:10293400E26F080EE36F000EE46F19EC0AF0D6C1E3
:0429440000F012008D
:10294800D6EC0CF00050100A0BE1C382010E010115
:10295800D96F000EDA6F050EDB6FC8EC0BF009D0EB
:10296800C3929C0E0C6ED70E0D6E0D2EFED70C2E3C
:04297800FCD7120076
:10297C0013EC18F0F26A0F0EC16E100E926E030E6D
:10298C00936EB80E946E806A816A826AF19EB56A03
:10299C00C36A1EDDB886040EB06EE10EAF6EAC8459
:1029AC00A2DCD96BB1EC0CF000C0D1F10BD0D96B1F
:1029BC00DA6B8BEC0CF0B59210D0B5820ED0B592D0
:1029CC000CD00BD00101D151FF0AF1E0D151010A19
:1029DC00F4E0D151000AF3E0F4D7818675EC0CF0E9
:1029EC00D08EA28AA08AF28EC394F28EF28C070E3D
:1029FC000B6E170E0C6E6A0E0D6E0D2EFED70C2E76
:102A0C00FCD70B2EFAD700008DEC10F0020ED26F13
:102A1C0096DC040093DF820E0101D26F0F0ED36F90
:102A2C00070ED46FC80ED56FD66B6ADE005231E03C
:102A3C0082845750E00A16E1010ED26FECEC10F0D4
:102A4C00030E0A6E610E0B6EC30E0C6E8E0E0D6EA7
:102A5C000D2EFED70C2EFCD70B2EFAD70A2EF8D73C
:102A6C00000016D08DEC10F00050000AD8B48294FF
:102A7C008184818EB580130E0B6E440E0C6E440E49
:102A8C000D6E0D2EFED70C2EFCD70B2EFAD7000098
:102A9C008294C3A413D0C394ED0ED96FF0EC0CF058
:102AAC009C0E0C6ED70E0D6E0D2EFED70C2EFCD779
:102ABC00EBDE00C0D9F1F0EC0CF0FCDEB5A09FD140
:102ACC0031D0B5B204D001011E0ED26FA1DC34D0CE
:102ADC00B5B211D02B062B50000A0DE10101D96BB8
:102AEC00010EDA6F8BEC0CF0B582320E2B6E1E0ED3
:102AFC000101D26F8DDC20D0B5A210D02B062B504B
:102B0C00000A0CE10101D96BDA6B8BEC0CF0B5927D
:102B1C00320E2B6E1E0E0101D26F7ADC0DD0320EEE
:102B2C002B6E0AD05750450ACCE057503E0AD0E0E5
:102B3C005750580AE1E0F3D72E0E0101D26F000E68
:102B4C00D36FE70ED46F2F0ED56F000ED66F0F0E0E
:102B5C00D76F100ED86F0ADC005262E04CD0C90E51
:102B6C00E06F94EC0BF05AD0CA0E0101E06F94ECBC
:102B7C000BF054D0CB0E0101E06F94EC0BF04ED067
:102B8C00CC0E0101E06F94EC0BF048D0FF0E01016C
:102B9C00D96FFF0EDA6F8BEC0CF06D969C0E0C6EF1
:102BAC00D70E0D6E0D2EFED70C2EFCD7FF0036D097
:102BBC001E0E0101D26F2CDCB5842E0E0101E06FCC
:102BCC00000EE16FE26B200EE36F000EE46F5FEC22
:102BDC000BF0ED0ED96FF0EC0CF09C0E0C6ED70ECA
:102BEC000D6E0D2EFED70C2EFCD7010ED96FF0EC0E
:102BFC000CF014D013D04D501E0AB1E04D501F0AEA
:102C0C00B3E04D50200AB6E04D50210AB9E04D50CA
:102C1C00270ABCE04D500A0ACBE0ECD74C6A53D0E3
:102C2C0001012E0ED26F000ED36F1A0ED46F300E20
:102C3C00D56F000ED66F170ED76F080ED86FBCEC81
:102C4C0011F0005240E02BD00101CD0EE06F94EC5E
:102C5C000BF038D0CE0E0101E06F94EC0BF032D0BB
:102C6C00CF0E0101E06F94EC0BF02CD0D00E0101D3
:102C7C00E06F94EC0BF026D0D10E0101E06F94ECD8
:102C8C000BF020D0010E0101D26F200ED36F5FEC40
:102C9C0011F01E0ED26F0EEC12F014D013D04D505A
:102CAC001E0AD2E04D501F0AD5E04D50200AD8E044
:102CBC004D50210ADBE04D50220ADEE04D500A0A4D
:102CCC00E1E0ECD74C6AB5A48CD05750280AD8A4B4
:102CDC0088D01F0E2D6E2E0EE96E000EEA6E2D5052
:102CEC00E926D8B0EA2AEE50000A05E0000E2D5C69
:102CFC0002E32D06F0D72D501F0A2EE0010E010124
:102D0C00D26F200ED36F5FEC11F02D50010F006EBF
:102D1C00016A000E01222E0E0024D26F000E01203B
:102D2C00D36F00502008D46F010ED56F87DDED0EE8
:102D3C000101D96FF0EC0CF09C0E0C6ED70E0D6EE1
:102D4C000D2EFED70C2EFCD7D96BF0EC0CF01E0E12
:102D5C00D26F0EEC12F044D0ED0E0101D96FF0ECF5
:102D6C000CF09C0E0C6ED70E0D6E0D2EFED70C2E8D
:102D7C00FCD7070ED96FF0EC0CF03D0E0B6EE10E8C
:102D8C000C6E3F0E0D6E0D2EFED70C2EFCD70B2E9F
:102D9C00FAD700000000ED0ED96FF0EC0CF09C0E91
:102DAC000C6ED70E0D6E0D2EFED70C2EFCD7D96BDC
:102DBC00F0EC0CF01E0ED26F0EEC12F0130E0B6E2C
:102DCC00440E0C6E440E0D6E0D2EFED70C2EFCD741
:102DDC000B2EFAD700001E0E0101D26F0EEC12F072
:102DEC00B594070E0B6E170E0C6E6A0E0D6E0D2E33
:102DFC00FED70C2EFCD70B2EFAD7000024D0B5B082
:102E0C0022D08194819EC3A212D05750000A00E0B8
:102E1C00C3B00DD0570E0101D26F000ED36F4EC050
:102E2C00D4F152DD5750000A02E1D9EC0CF0020E3D
:102E3C000B6ED40E0C6E850E0D6E0D2EFED70C2E59
:0A2E4C00FCD70B2EFAD7E5D5FFD70F
:1030260010EE2BF0280E006E010E016E420EF66EAB
:0E3036002F0EF76E000EF86EE6EC11F0120091
:102E56000142003E3C3A3B450043413F3D2B35672E
:102E660000E2E100E0141E0000001D16041A1F0017
:102E760000061B0708212000002C1909171522003F
:102E86000011050B0A1C23000000100D1824250054
:102E960000360E0C122726000037380F33132D008C
:102EA600000034002F2E000039E5283000310000E4
:102EB6000000000000002A000059005C5F85000049
:102EC60062635A5D5E60295344575B5655614700FD
:042ED60000000040B8
:102EDA0005010906A101050719E029E715002501E1
:102EEA00750195088102950175088101950575019D
:102EFA0005081901290591029501750391019506A5
:0F2F0A007508150025650507190029658100C0A8
:102F1900090229000101000000090400000203015F
:102F29000100092101010001223F00070581034039
:092F3900000A0705010340000A2B
:012F4200325C
:012F4300008D
:012F4400008C
:102F4500000000000000000000000000000000007C
:102F5500000000000000000000000000000000006C
:012F6500006B
:012F6600006A
:012F67000069
:012F68000068
:012F69000067
:102F6A005A58694D6C4A7049714C7251744F755276
:102F7A007A4E7C467D4B7E4814E411E627E71FE330
:042F8A006B504A54EA
:102F8E0048494420496E74657266616365206465C4
:0A2F9E00736320737472696E67009C
:102FA80048494420436F6E666967206465736320EF
:072FB800737472696E67007B
:102FBF0056657267696C69756D5F456C6563747290
:062FCF006F6E69637300E0
:102FD50012010002000000080912000300010102AD
:022FE5000001E9
:102FE7000A0B0D180B091919050B0D07091C0517F5
:102FF70047616D655465726D696E616C484944003F
:0B300700307830303030303030310095
:083012000102040810204080B7
:08301A00080F090E171C051731
:043022000403090496
:020000040030CA
:0E000000220E391EFF0080FF0FC00FE00F40E0
:00000001FF
