:04000000B2EF15F056
:020006001200E6
:1000080000C01EF001C01DF002C01CF003C01BF0B0
:1000180004C01AF005C019F008C018F009C017F09C
:100028000AC016F00BC015F0D9CF29F0DACF2AF0A4
:10003800E1CF27F0E2CF28F0E9CF25F0EACF26F08C
:10004800F3CF23F0F4CF24F0F5CF22F0F8CF1FF050
:10005800F7CF20F0F6CF21F0B5B202D037EC13F08D
:10006800ACEC14F002EC15F022C0F5FF1FC0F8FF4D
:1000780020C0F7FF21C0F6FF23C0F3FF24C0F4FF20
:100088001EC000F01DC001F01CC002F01BC003F030
:100098001AC004F019C005F018C008F017C009F01C
:1000A80016C00AF015C00BF025C0E9FF26C0EAFF0C
:1000B80027C0E1FF28C0E2FF29C0D9FF2AC0DAFF24
:0200C800110025
:1000CA0025C204F026C205F023C202F024C203F0BE
:1000DA0027C200F00201270700520FE004C0E9FF1F
:1000EA0005C0EAFF02C0E1FF03C0E2FFEECFE6FF70
:1000FA00024A032A044A052AEBD723C200F024C283
:04010A0001F01200EE
:10010E0002011F6B206B1AC201F01BC202F01CC24F
:10011E0003F0000E046E000E006E041808E100508D
:10012E00031805E10050021802E10150000A65E0D3
:10013E001AC205F01BC206F01CC207F005C0F6FF7E
:10014E0006C0F7FF07C0F8FF0900F5CF01F0015018
:10015E00000A07E0202B010E0526000E06220722BC
:10016E00EDD720C200F000360090020E002600C02F
:10017E0020F21AC205F01BC206F01CC207F01F5176
:10018E001D25E16E000E1E21E26E00C0E6FF1F2B44
:10019E001F511D25E16E000E1E21E26E030EE66E4E
:1001AE001F2B05C0F6FF06C0F7FF07C0F8FF0900BA
:1001BE00F5CF01F00150000A20E01F511D25E16E20
:1001CE00000E1E21E26E05C0F6FF06C0F7FF07C047
:1001DE00F8FF0900F5CF00F000C0E6FF1F2B010E5F
:1001EE000526000E062207221F511D25E16E000E68
:0C01FE001E21E26EE66A1F2BD4D712000F
:10020A0002011AAF07D0460E1E6F010E1F6F020EB3
:10021A00206F05D0C20E1E6F000E1F6F206B0A0ED4
:10022A001E25D96E000E1F21DA6EDE502025036EC0
:10023A00046A000E042203C000F004C001F0003674
:10024A0000900136003600900136000E00241C6F23
:10025A00040E01201D6F050E1E25E96E000E1F21DA
:10026A00EA6EEECF01F0EECF02F0000E006E025001
:10027A00005C03E101500001BE5D06E2BEC021F24E
:10028A00000E0201226F0BD00201050E1E25E96E37
:10029A00000E1F21EA6EEECF21F2EECF22F2C00E3F
:1002AA00236F040E246F010E1E25E96E000E1F2116
:1002BA00EA6EEECF25F2EECF26F221C227F200DF58
:1002CA00020E1C25E16E000E1D21E26EC00E006EAC
:1002DA00040E016E00C0E6FF01C0E6FF010E1C25F8
:1002EA00E16E000E1D21E26E21C2E6FF030E221509
:1002FA00036E1EC2E9FF1FC2EAFFEECF02F0060E2E
:10030A00016E02C000F0015004E000360090FF0FB9
:10031A00FBD7035000121CC2E1FF1DC2E2FF1B51B2
:06032A000010E66E120057
:10033000016A026A02012051025C02E11F51015C64
:1003400017E201501D25E16E02501E21E26E0150A0
:100350001A25F66E02501B21F76E000E1C21F86E56
:100360000900F5CF00F000C0E6FF014A022AE2D7FB
:02037000120079
:100372000B6A0A6A096A00500402F4CF09F0F3CF4B
:1003820008F001500502F4CF0BF0F3CF0AF0005051
:100392000502F3500926F4500A22E86A0B220150A2
:1003A2000402F3500926F4500A22E86A0B2208C01C
:1003B20000F009C001F00AC002F00BC003F0120005
:1003C200C00E0001C36F040EC46F080EC56F000E8D
:1003D200C66F080EC76F000EC86FC26B02011A6BA0
:0803E2008C0E1B6F11DF1200ED
:1003EA0075D04A0E006E330E016E000E026E00C00A
:1003FA001AF201C01BF202C01CF2530E02011D6F59
:10040A00000E1E6F00C0F6FF01C0F7FF02C0F8FF22
:10041A000900F5CF1FF2000E206F85DF530E006E24
:10042A00000E016E67D0DB0E1A6F320E1B6F000EC4
:10043A001C6F530E1D6F000E1E6F64DE530E006E8E
:10044A00000E016E57D0030E1A6F330E1B6F000E8B
:10045A001C6F530E1D6F000E1E6F54DE530E006E7E
:10046A00000E016E47D02F0E1A6F330E1B6F000E4F
:10047A001C6F530E1D6F000E1E6F44DE530E006E6E
:10048A00000E016E37D0C40E1A6F320E1B6F000EAB
:10049A001C6F530E1D6F000E1E6F34DE530E006E5E
:1004AA00000E016E27D0AA0E1A6F320E1B6F000EB5
:1004BA001C6F530E1D6F000E1E6F24DE530E006E4E
:1004CA00000E016E17D0006A016A14D00201195198
:1004DA00000A87E01951010AA6E01951020AB3E09D
:1004EA001951030AC0E01951040ACDE01951050A4D
:0604FA00DAE0E9D7120070
:1005000060D0F10E006E320E016E000E026E00C061
:100510001AF201C01BF202C01CF2530E02011D6F41
:10052000000E1E6F00C0F6FF01C0F7FF02C0F8FF0B
:100530000900F5CF1FF2000E206FFADE530E006E99
:10054000000E016E49D0350E006E320E016E000EA7
:10055000026E00C01AF201C01BF202C01CF2530E60
:100560001D6F000E1E6F020E0024F66E000E01209D
:10057000F76E000E0220F86E0900F5CF04F0030EAE
:100580000024F66E000E0120F76E000E0220F86EB9
:100590000900F5CF03F003C001F0006A0450002405
:1005A0001F6F000E0120206FC3DE530E006E000E81
:1005B000016E12D011C219F218DF0ED0006A016A62
:1005C0000BD002011051010A9CE01051020ABBE05D
:0A05D0001051030AEFE0F2D7120009
:1005DA000F0E02011015166F176B186B10AF06D0AD
:1005EA00460E146F010E156F178305D0C20E146FD5
:1005FA00000E156F17850B0E006E000E016E16C2E7
:10060A0004F0000E056EB0DE1451002615510122C9
:10061A0000C014F201C015F2070E0024E16E000EAC
:10062A000120E26E11C2E6FF14C2E1FF15C2E2FF29
:10063A00E66A080E1425E16E000E1521E26E12C25A
:10064A00E6FF13C2E6FF17871151010AD8A41789DA
:10065A00700E016E0F0E026E16510126D8B0022AD4
:10066A0001C0E9FF02C0EAFF1751EE10006E01C097
:0C067A00E1FF02C0E2FF00C0E6FF12003A
:1006860007D0C38210D0C3920ED0C3920CD00BD029
:1006960002011051050AF5E01051060AF4E0105166
:0806A600070AF3E0F4D712008B
:1006AE00460E006E010E016E010E0024E16E000E6C
:1006BE000120E26E10C2E6FF11C2E6FF030E002417
:1006CE00E16E000E0120E26E12C2E6FF13C2E6FFDB
:1006DE00050E0024E16E000E0120E26E12C2E6FF4E
:1006EE0013C2E6FF00C0E1FF01C0E2FF010EE66E9D
:0806FE00020E0001BC6F1200A6
:08070600040E0001BC6F12009B
:10070E000101476B486B496B4A6B4B6B4C6B010E8F
:10071E00466F800E02011A6F840E1B6F6FDD4ADE6C
:02072E001200B7
:1007300009C247F10AC248F10BC249F10CC24AF1A1
:100740000BC24BF10CC24CF1020E0001BC6F120047
:1007500002010B6B0C6B09C2E9FF0AC2EAFFEECF84
:1007600000F0600E00140F6F36D1010E09250D6FD9
:10077000000E0A210E6F35D00201020E0925E96E26
:10078000000E0A21EA6EEECF52F0BDDF5BD0520EB2
:100790000201106F000E116F010E126F000E136F29
:1007A00086DF50D0020E02010925E96E000E0A21F3
:1007B000EA6EEECF03F0EECF04F004C000F0016A61
:1007C00000C051F0A0DF3ED0510E0201106F000EAC
:1007D000116F010E126F000E136F69DF33D097DFB8
:1007E00003D10DC2E9FF0EC2EAFFEECF01F0000E09
:1007F000000A02E10B0E0118BFE00DC2E9FF0EC2B4
:10080000EAFFEECF01F0000E000A02E1030E01182C
:10081000BEE00DC2E9FF0EC2EAFFEECF01F0000E0E
:10082000000A02E10A0E0118BDE00DC2E9FF0EC286
:10083000EAFFEECF01F0000E000A02E1020E0118FD
:10084000C3E0CDD7D1D00201010E09250D6F000EF6
:100850000A210E6FA9D00201020E0925E96E000ED1
:100860000A21EA6EEECF03F0EECF04F004C001F0EF
:10087000026A0250000A02E1220E011833E1060E5C
:100880000925E96E000E0A21EA6EEECF01F0EECFE7
:1008900002F001C00BF202C00CF2000E006E02501A
:1008A000005C02E101503F0804E23F0E0B6F000EB6
:1008B0000C6FF60E1A6F310E1B6F000E1C6F530E6D
:1008C0001D6F000E1E6F0BC21FF20CC220F230DD36
:1008D000530E106F000E116F0BC212F20CC213F206
:1008E000E6DE4BD0020E02010925E96E000E0A2158
:1008F000EA6EEECF03F0EECF04F004C001F0026A1E
:10090000000E021802E1210E011837E1060E09253A
:10091000E96E000E0A21EA6EEECF01F0EECF02F092
:1009200001C00BF202C00CF2000E006E0250005C1F
:1009300002E10150090804E2090E0B6F000E0C6F72
:10094000350E1A6F320E1B6F000E1C6F120E1A2717
:10095000000E1B231C23530E1D6F000E1E6F0BC2B7
:100960001FF20CC220F2E4DC530E106F000E116F68
:100970000BC212F20CC213F29ADE2CD0500E0201FE
:10098000106F000E116F010E126F000E136F8FDECD
:1009900021D0020E02010925E96E000E0A21EA6E3D
:1009A000EECF50F0B0DE16D00DC2E9FF0EC2EAFF66
:1009B000EE50060AD8B44FD70DC2E9FF0EC2EAFFC7
:1009C000EE500A0ADBE00DC2E9FF0EC2EAFFEE506C
:1009D0000B0ADFE009D002010F51200AD8B4C5D6B6
:0A09E0000F51000AD8B42FD71200FF
:1009EA00020E0201106F09C211F2000E126F136B90
:1009FA00146B81DD00C00CF201C00DF2020E00245E
:100A0A00E96E000E0120EA6EEECF05F0030E002417
:100A1A00E96E000E0120EA6EEECF03F0000E046EBE
:100A2A0003C001F0006A055000240A6F000E01207D
:100A3A000B6F010E0C25E96E000E0D21EA6EEE50C9
:100A4A00050A2FE1020E0C25E96E000E0D21EA6E51
:100A5A00EECF10F2030E0C25E96E000E0D21EA6EA0
:100A6A00EECF06F0040E0C25E96E000E0D21EA6E9B
:100A7A00EECF05F0050E0C25E96E000E0D21EA6E8B
:100A8A00EECF03F0000E046E03C001F0006A0550B9
:100A9A000024126F000E0120136F030E0614116F4B
:100AAA0097DD0CC2D9FF0DC2DAFFDE500A5D006E77
:100ABA00000E0B59016E00C00AF201C00BF2005081
:100ACA0001100AE00CC2E9FF0DC2EAFFEECF00F006
:100ADA0000500C27000E0D230A510B11AAE1100E2B
:0E0AEA000001BA6F050E0201106FC8DD120088
:100AF80001C2E9FF02C2EAFFEECF00F01F0E0014A8
:100B08000201006F7ED0CAC107F2000E086F85D0BF
:100B1800076B086B82D0040E0125056E000E0221BA
:100B2800066E05C0E9FF06C0EAFF0F0EEE14016E5F
:100B380001C0FFF101C003F0000E046E0336043655
:100B4800039003360436039003C000F004C001F09C
:100B5800003600900136003600900136000E002461
:100B6800036F040E0120046F05C0E9FF06C0EAFF09
:100B7800EECF02F0EECF03F002AE09D0460E056FBD
:100B8800010E066F080E0327000E042304D0C20EC0
:100B9800056F000E066F0B0E006E000E016EFFC192
:100BA80004F0000E056EB9EC01F00551002606515F
:100BB800012200C005F201C006F200C0E9FF01C031
:100BC800EAFFEECF03F003C000F0000E016E00361E
:100BD800009001360036009001360351002604517A
:100BE800012200C003F201C004F200C0E9FF01C005
:100BF800EAFFEECF00F0076B00B4072B000E086F7A
:100C08000CD00051000AD8B47ED70051010AD8B4DC
:100C18007FD70051020AD8B47ED7070E096F020E9B
:0E0C28000A6F020E0B6F000E0C6F7EDD1200C5
:100C36000B0E006E000E016EE5C104F0000E056E8F
:100C4600B9EC01F0460E0026010E012200C0EAF1C1
:100C560001C0EBF1010E0024E16E000E0120E26EF0
:100C6600E6C1E6FFE7C1E6FF030E0101EA25E16EF4
:100C7600000EEB21E26EE8C1E6FFE9C1E6FF050ED4
:100C8600EA25E16E000EEB21E26EE8C1E6FFE9C15E
:100C9600E6FFE5C100F0000E016E00360136009059
:100CA600003601360090020E0026000E01220A0EC2
:100CB600EA25D96E000EEB21DA6EDE500024036EB3
:100CC600000E0120046E03C000F004C001F00036DF
:100CD60000900136003600900136000E0026040E04
:100CE600012200C0ECF101C0EDF1020E0024E16E1C
:100CF600000E0120E26EE6C1E6FFE7C1E6FF010E47
:100D0600EC25E16E000EED21E26EE8C1E6FFE9C1D9
:100D160000F0016A030E0014036EEAC1E9FFEBC19D
:100D2600EAFFEECF02F0060E016E02C000F001509F
:100D360004E000360090FF0FFBD703500012ECC111
:0E0D4600E1FFEDC1E2FF880E0010E66E120024
:100D5400010E02010125E96E000E0221EA6EEE5039
:100D6400030A03E1010E006F01D0006B01C2E9FF29
:100D740002C2EAFFEECF00F01F0E0014076F22D16B
:100D8400020E0125E96E000E0221EA6EEECF01F09B
:100D9400EECF02F0000E021802E1010E011819E173
:100DA400040E0001BC6F0201005307E0020E0101B2
:100DB400CA11006E00C0CAF10BD00101FD0ECA15A4
:100DC400006E00C0CAF101C209F202C20AF2BEDC1E
:100DD4001CD00201005316E0020E0125E96E000E3C
:100DE4000221EA6EEECF01F0EECF02F0000E0218FF
:100DF40002E1020E011805E101C209F202C20AF27F
:100E0400A5DC03D0060E0001BC6FE9D001C209F2D3
:100E140002C20AF29BDCE3D0020E02010125E96E54
:100E2400000E0221EA6EEECF01F0EECF02F0000ECA
:100E3400021802E1000E0118D8A4BDD0040E012549
:100E4400E96E000E0221EA6E0F0EEE14006EEECF74
:100E540001F0000E011600500110D8B4A8D0040E01
:100E64000125056E000E0221066E05C0E9FF06C0CD
:100E7400EAFF0F0EEE14016E01C0FFF101C003F092
:100E8400000E046E033604360390033604360390D2
:100E940003C000F004C001F00036009001360036B3
:100EA40000900136000E0024036F040E0120046F2D
:100EB40005C0E9FF06C0EAFFEECF02F0EECF03F073
:100EC40002AE04D0080E0327000E0423005322E0D0
:100ED40003C2E9FF04C2EAFF03C2E1FF04C2E2FF66
:100EE400840EEE12040E0325016E000E0421026E20
:100EF40001C003F202C004F201C0E9FF02C0EAFF2C
:100F0400840EEE10006E01C0E1FF02C0E2FF00C0DB
:100F1400E6FF4DD003C2E9FF04C2EAFF03C2E1FFCA
:100F240004C2E2FF7B0EEE16040E0325016E000ED2
:100F34000421026E01C003F202C004F201C0E9FF01
:100F440002C0EAFF7B0EEE14006E01C0E1FF02C096
:100F5400E2FF00C0E6FF040E0125E96E000E022147
:100F6400EA6EEECF02F0EECF03F002AE05D0460EED
:100F7400056F010E066F04D0C20E056F000E066FDA
:100F84000B0E006E000E016EFFC104F0000E056E24
:100F9400B9EC01F0055100260651012200C005F20A
:100FA40001C006F200C0E1FF01C0E2FFE66A040EE0
:100FB4000001BC6F06D001C209F202C20AF2A8EC19
:100FC40003F00DD002010751000AD8B4D9D6075155
:100FD400010AD8B41BD70751020AD8B41DD712008E
:100FE400020E02010125E96E000E0221EA6EEECF27
:100FF40001F001C0FFF101500001BF5D03E2060EE4
:10100400BC6F30D0BA51080A13E10101FF51000A44
:1010140004E1040E0001BC6F08D00001100EBA6F89
:10102400040EBC6FFFC109F2DEDCFFC1C0F01AD0B0
:101034000001BA51100A13E10101FF51000A06E14F
:10104400080E0001BA6F040EBC6F06D00001040E36
:10105400BC6FFFC109F2C7DCFFC1C0F003D0060EAC
:061064000001BC6F120048
:10106A00020E02010125E96E000E0221EA6EEECFA0
:10107A0001F0EECF02F002C007F2086B94D0010E25
:10108A00106F116B126B136B146B80EC02F000C0C3
:10109A0003F201C004F26E50000A05E1080E056F62
:1010AA00000E066F0AD003C2E9FF04C2EAFFEECFC0
:1010BA0005F2000E066F000E066F8BD0020E012598
:1010CA00E96E000E0221EA6EEECF01F001C0FFF1D7
:1010DA0001500001BF5D03E2060EBC6F9ED0020EF6
:1010EA000201106FFFC111F2000E126F136B146B25
:1010FA0080EC02F000C003F201C004F2020E0024E8
:10110A00E96E000E0120EA6EEECF05F0030E002410
:10111A00E96E000E0120EA6EEECF03F0000E046EB7
:10112A0003C001F0006A05500024056F000E01207B
:10113A00066F4FD0030E106F020E0125E96E000EE6
:10114A000221EA6EFF0EEE14116FEECF12F2000EBC
:10115A001217040E0125E96E000E0221EA6EEECF87
:10116A0013F2EECF14F280EC02F000C003F201C0D9
:10117A0004F2000E011802E1000E001804E1060E46
:10118A000001BC6F4AD003C2E9FF04C2EAFFEECFF6
:10119A0005F2000E0201066F000E066F1AD0060E47
:1011AA000001BC6F3AD0000E0201081902E1010EDB
:1011BA000719D8B464D7000E081902E1020E0719FC
:1011CA00D8B47CD7000E081902E1030E0719B2E061
:1011DA00E6D7060E0125D96E000E0221DA6EDECFA1
:1011EA0001F0DECF02F00651025C02E10551015C1A
:1011FA000AE2060E0125E96E000E0221EA6EEECF22
:10120A0005F2EECF06F203C209F204C20AF205C2DF
:0C121A000BF206C20CF298EC03F012007C
:10122600016A0150050812E39F0EE96E000EEA6E90
:101236000150E926D8B0EA2AEE500101FB1904E173
:101246000150010F006E03D0012AEBD7006A12008D
:10125600C6D0B5B001D059D10101FCB102D0809001
:1012660001D08080B5B406D00101FCB102D08294D1
:1012760001D082844AD1B5B001D047D10101FCB179
:1012860002D0809201D08082B5B406D00101FCB1B3
:1012960002D0829401D0828438D1B5B001D035D144
:1012A6000101FCB102D0809401D08084B5B406D08F
:1012B6000101FCB102D0829401D0828426D1B5B05E
:1012C60001D023D10101FCB102D0809601D08086E5
:1012D600B5B406D00101FCB102D0829401D082845B
:1012E60014D1B5B001D011D10101FCB102D0809A60
:1012F60001D0808AB5B406D00101FCB102D0829437
:1013060001D0828402D1B5B001D0FFD0B5A406D0F9
:101316000101FCB102D0829401D08284F6D0B5B02E
:1013260001D0F3D00101FCB102D0819C01D0818CA7
:10133600B5B406D00101FCB102D0829401D08284FA
:10134600E4D0B5B001D0E1D00101FCB102D0819A60
:1013560001D0818AB5B406D00101FCB102D08294D5
:1013660001D08284D2D0B5B001D0CFD00101FCB17A
:1013760002D0829001D08280B5B406D00101FCB1C2
:1013860002D0829401D08284C0D0B5B001D0BDD045
:101396000101FCB102D0829201D08282B5B406D09E
:1013A6000101FCB102D0829401D08284AED0B5B0E6
:1013B60001D0ABD00101FCB102D0819801D0818867
:1013C600B5B406D00101FCB102D0829401D082846A
:1013D6009CD0B5B001D099D0B59897D096D00101E0
:1013E600FB513E0AD8B435D7FB511E0AD8B434D7C0
:1013F600FB51590AD8B430D7FB513F0AD8B43BD772
:10140600FB511F0AD8B43AD7FB515A0AD8B436D77B
:10141600FB51400AD8B441D7FB51200AD8B440D773
:10142600FB515B0AD8B43CD7FB51410AD8B447D725
:10143600FB51210AD8B446D7FB515C0AD8B442D72F
:10144600FB51420AD8B44DD7FB51220AD8B44CD727
:10145600FB515D0AD8B448D7FB513D0AD8B453D7DF
:10146600FB51230AD8B452D7FB515E0AD8B44ED7E3
:10147600FB51430AD8B453D7FB51240AD8B452D7E8
:10148600FB515F0AD8B44ED7FB51440AD8B459D79A
:10149600FB51250AD8B458D7FB51600AD8B454D7A3
:1014A600FB513A0AD8B45FD7FB51260AD8B45ED7A7
:1014B600FB51610AD8B45AD7FB513B0AD8B465D759
:1014C600FB51270AD8B464D7FB51620AD8B460D757
:1014D600FB51450AD8B46BD7FB51280AD8B46AD752
:1014E600FB512C0AD8B466D7FB51580AD8B462D738
:1014F600FB513C0AD8B46DD7FB51290AD8B46CD736
:0C150600FB514A0AD8B468D769D712001C
:10151200000E0001AD6F040EAE6F0101D06BD16BF6
:10152200000ED15D02E1C00ED05D0CE2ADC0E1FF64
:10153200AEC0E2FFE66A0001AD4BAE2B0101D04B1B
:10154200D12BEED7BA0E0001AD6F000EAE6F0101C6
:10155200D06BD16B010ED15D02E1110ED05D0CE2B8
:10156200ADC0E1FFAEC0E2FFE66A0001AD4BAE2BBB
:0A1572000101D04BD12BEED712007F
:10157C00E0C100F00032009E0032009E0032009E5E
:10158C000032009E00500101E019026E02C0E0F131
:10159C0002C000F00032009E0032009E0050021A81
:1015AC0002C0E0F102C000F00032009E0250001AAE
:0C15BC0000C0E0F1010E0016001E12003D
:1015C800026A200E025C18E22E0EE16E000EE26E38
:1015D8000250E126D8B0E22A0250010F006E016ADB
:1015E800000E01222E0E0024E96E000E0120EA6E84
:1015F800EECFE6FF022AE5D7220E4F14016E015006
:10160800000A05E0800E0101FB114D6E02D0FBC1FE
:041618004DF012007F
:04161C00C384120071
:10162000010E0101FB25FD6F000EFC21FE6F69D04C
:10163000FBC101F2FCC102F27CEC05F0B0D0FBC1B1
:1016400001F2FCC102F2AAEC06F0A9D0020E0101DF
:10165000FB25006E000EFC21016E00C0E9FF01C0F9
:10166000EAFFEECFC1F000C0E9FF01C0EAFFEECF14
:1016700002F0EECF03F0000E031802E1000E021894
:1016800004E0080E0001BA6F03D00001040EBA6F27
:10169000040EBC6F84D0FBC1E9FFFCC1EAFFEECFB2
:1016A00000F01F0E0014016E0150000A06E1FBC19C
:1016B00001F2FCC102F2D9DC06D0FBC109F2FCC187
:1016C0000AF2A8EC03F06BD0C00E0201096F000E05
:1016D0000A6F010E0B6F000E0C6F98EC03F05FD0D9
:1016E000FBC101F2FCC102F27DDC59D0FBC109F261
:1016F000FCC10AF2A8EC03F052D0060E0001BC6F48
:101700004ED0FDC1E9FFFEC1EAFFEE50000A90E0B5
:10171000FDC1E9FFFEC1EAFFEE50010A90E0FDC104
:10172000E9FFFEC1EAFFEE50030A89E0FDC1E9FFCF
:10173000FEC1EAFFEE50050A89E0FDC1E9FFFEC1E6
:10174000EAFFEE50060AA7E0FDC1E9FFFEC1EAFF8D
:10175000EE50080AB9E0FDC1E9FFFEC1EAFFEE5014
:10176000090ABEE0FDC1E9FFFEC1EAFFEE50070A2B
:10177000BDE0FDC1E9FFFEC1EAFFEE500C0AB6E094
:10178000FDC1E9FFFEC1EAFFEE500A0AAFE0FDC16C
:10179000E9FFFEC1EAFFEE500B0AA8E0AED7120047
:1017A00016D00101476B486B496B4A6B4B6B4C6B16
:1017B0000101010E466F800E02011A6F880E1B6F29
:1017C00005EC01F01AD019D087EC03F016D0000E0A
:1017D000000A03E1040E0001BC19E3E0000E000A58
:1017E00003E10001020EBC19E3E0000E000A03E170
:0C17F0000001030EBC19E7E0E7D712006F
:1017FC00700E0001AD6F0F0EAE6F0101D06BD16B8F
:10180C00000ED15D02E10C0ED05D0CE2ADC0E1FF2B
:10181C00AEC0E2FFE66A0001AD4BAE2B0101D04B2E
:06182C00D12BEED71200E3
:10183200E0C1E5F1E1C1E6F1E2C1E7F1E3C1E8F1BE
:0A184200E4C1E9F11BEC06F012000E
:10184C00E0C102F0E1C103F0E3C100F0E4C101F03A
:10185C00010E0101E35F000EE45B0050011009E092
:10186C0002C0E1FF03C0E2FFE2C1E6FF024A032A25
:0C187C00EBD7E0C100F0E1C101F0120068
:0E188800ACB202D00000FCD7E0C1ADFF1200F0
:10189600A6A202D00000FCD7A69CD9C1A9FFDAC136
:1018A600A8FFA69EA684F2CF00F0F29E550EA76E64
:1018B600AA0EA76EA68200BE02D0F29E01D0F28EBC
:0418C600A6941200D2
:1018CA003A0E0101D95D006E016A000E015A230E1B
:1018DA000024F66E330E0120F76E000EF86E000E2D
:1018EA0001BEFF0EF8220900F5CF00F000C0D9F1C1
:0218FA001200DA
:1018FC00080E0C6EC10E0D6E0D2EFED70C2EFCD7E5
:06190C00000000001200C3
:10191200400E0101E06F050EE16FE26B080EE36F0E
:10192200000EE46F92DF010EE06F400EE16F050ED4
:0E193200E26F080EE36F000EE46F7ADF120022
:06194000BAC000F0120025
:101946000B0E006E000E016ED9C104F0000E056E7E
:10195600B9EC01F0C20E0026000E012200C0DCF137
:1019660001C0DDF1010E0024E16E000E0120E26EE1
:10197600DAC1E6FFDBC1E6FF030E0101DC25E16EFD
:10198600000EDD21E26E080EDC25E96E000EDD217B
:10199600EA6EEECFE6FFEECFE6FF050EDC25E16E42
:1019A600000EDD21E26E080EDC25E96E000EDD215B
:1019B600EA6EEECFE6FFEECFE6FFD9C100F0000EED
:1019C600016E0036013600900036013600900A0E90
:1019D600DC25D96E000EDD21DA6EDE500024036EA2
:1019E600000E0120046E03C000F004C001F00036B2
:1019F60000900136003600900136000E0026040ED7
:101A0600012200C0DEF101C0DFF1020E0024E16E0A
:101A1600000E0120E26E010EDC25E96E000EDD21CE
:101A2600EA6EEECFE6FFEECFE6FF010EDE25E16EB3
:101A3600000EDF21E26E080EDC25E96E000EDD21C8
:101A4600EA6EEECFE6FF080EDC25E96E000EDD211C
:101A5600EA6EEECF03F0EECF04F004C000F0016AA8
:101A6600030E0014036EDCC1E9FFDDC1EAFFEECF11
:101A760002F0060E016E02C000F0015004E00036CE
:101A86000090FF0FFBD703500012DEC1E1FFDFC15C
:0A1A9600E2FF880E0010E66E120059
:101AA000A69CD9C1A9FFA69EA680A8CF00F01200CF
:101AB000DAC140F52CC041F5D9C142F5430E010110
:101AC000E06F050EE16FE26B050EE36F000EE46F51
:101AD000BDDE010EE06F400EE16F050EE26F080EF5
:0A1AE000E36F000EE46FA5DE1200B4
:101AEA00F250026EF29E0500FF6A0150FE6E00502F
:081AFA00FD6E02BEF28E120027
:101B02000001A6510B0A32E1D9C1A5F0D9C1E0F119
:101B120034DD00B002D0C49801D0C488F09681921E
:101B2200808893929298070E0B6E170E0C6E6A0EB7
:101B32000D6E0D2EFED70C2EFCD70B2EFAD7000001
:101B42008098100E0C6E940E0D6E0D2EFED70C2E7C
:101B5200FCD7000081829382C4860A0E0001A66F20
:101B6200F090F086CA84010E006E01D0006A120065
:101B72006B6A6A6A696A686A40DE160E6F6E6E6A1E
:101B8200C7DC9F0E6B6E7B0E696E6D8C6D9C160EA4
:0E1B9200706E080E6D6E0001BA6BBC6B120017
:101BA000A7C0E9FFA8C0EAFFEECF00F03C0E00148A
:101BB000016E01C006F00632069E0632069E06C081
:101BC000F7F1010E0001A725E96E000EA821EA6ECB
:101BD000EECF05F0A7C0E9FFA8C0EAFFEECF00F006
:101BE000000E016E030E0014036E01C004F0000E1F
:101BF000041603C001F0006A005005100101F86FDF
:101C0000000E0110F96F06500D0A42E17F0E04012B
:101C10000815006E00C008F47F0E0C15006E00C0A1
:101C20000CF49DC0E9FF9EC0EAFFEECF00F09DC01E
:101C3000E1FF9EC0E2FF7F0E0014E66E950E0201EA
:101C4000236F000E246FC00E256F040E266F080E42
:101C5000276F65EC00F000C0F5F101C0F6F100C09F
:101C6000E9FF01C0EAFF600EEE14016E0150000AA8
:101C700006E1F5C1FBF1F6C1FCF1D2DC06D0F5C1FD
:101C800009F2F6C10AF2A8EC03F06D9889DDB3D130
:101C90000101F751010AD8A4C9D0000E000A03E1DE
:101CA000050E0001BC1905E10001BC6BE1EC01F07F
:101CB000BCD0000E000A03E1030E0001BC19D8A439
:101CC000B4D00001010EB325E96E000EB421EA6E16
:101CD000EECF23F2EECF24F2C00E0201256F040EE8
:101CE000266FF8C127F265EC00F0050E0001B32560
:101CF000026E000EB421036E02C0E9FF03C0EAFFCA
:101D00000101F851EE5C006EF951EE58016E02C00F
:101D1000E1FF03C0E2FF00C0E6FF01C0E6FF010EE5
:101D20000001B325026E000EB421036E02C0E9FF6C
:101D300003C0EAFF0101F851EE24006EF951EE20D4
:101D4000016E02C0E1FF03C0E2FF00C0E6FF01C078
:101D5000E6FF030E0001B325026E000EB421036EF0
:101D600002C0E9FF03C0EAFF0101F851EE24006E52
:101D7000F951EE20016E02C0E1FF03C0E2FF00C096
:101D8000E6FF01C0E6FF000EF95D04E10001BE516F
:101D90000101F85D2FE2460EF36F010EF46F010EA4
:101DA000F325E16E000EF421E26EC00EE66E040E25
:101DB000E66E030EF325E16E000EF421E26EE66A94
:101DC000E66A050EF325E16E000EF421E26EE66A86
:101DD000E66AF3C1E1FFF4C1E2FF010EE66E800E98
:101DE00002011A6F880E1B6F05EC01F0040E000152
:101DF000BC6F13D0B3C0E9FFB4C0EAFFEECF00F070
:101E0000B3C0E1FFB4C0E2FF010E0018E66E0201AC
:101E10001A6B880E1B6F05EC01F00101FB6BF8C11A
:101E2000FCF1F9C1FDF10EEC0BF0E5D00101FA6B0C
:101E3000050E0001B325E96E000EB421EA6EEECF67
:101E400001F0EECF02F0000E021802E1BE510118BF
:101E50000BE1000E006E9C51005C02E19B51BE5DE7
:101E600003E2010E0101FA6F050E0001B325026EB7
:101E7000000EB421036E02C0E9FF03C0EAFF0101B6
:101E8000F851EE5C006EF951EE58016E02C0E1FFB0
:101E900003C0E2FF00C0E6FF01C0E6FF010E000143
:101EA000B325026E000EB421036E02C0E9FF03C029
:101EB000EAFF0101F851EE24006EF951EE20016EA7
:101EC00002C0E1FF03C0E2FF00C0E6FF01C0E6FF81
:101ED000050E0001B325E96E000EB421EA6EEECFC7
:101EE00001F0EECF02F0000E006E0250005C02E145
:101EF0000150000816E3050EB325E96E000EB4216B
:101F0000EA6EEECF01F0EECF02F0000E021802E111
:101F1000000E011805E10101FA51010A01E101D0A9
:101F200015D0B3C0E9FFB4C0EAFFEECF00F0B3C0F4
:101F3000E1FFB4C0E2FF010E0018E66E800E020160
:101F40001A6F880E1B6F05EC01F051D00201800E54
:101F50001A6F840E1B6F05EC01F0000E000A03E1FE
:101F6000020E0001BC1933E10001050EBC6FC20E68
:101F70000101F36F000EF46F010EF325E16E000E08
:101F8000F421E26EC00EE66E040EE66E030EF3253B
:101F9000E16E000EF421E26E080EE66E000EE66EB3
:101FA000050EF325E16E000EF421E26E080EE66EDA
:101FB000000EE66EF3C1E1FFF4C1E2FF010EE66E32
:101FC00002011A6B880E1B6F05EC01F010D0000E99
:101FD000000A03E1040E0001BC1909E10001BA5135
:101FE000080A02E1C1C06EFFBC6BE1EC01F0010127
:081FF000FB6B03EC00F0120092
:0A1FF800CA949E92FA0ECB6E1200FE
:102002000101F56B22D1C48239D1C48437D1100EBB
:102012002B18006EF00E00162B50001A00C02BF089
:102022002DD1300E2B18006EF00E00162B50001A18
:1020320000C02BF023D1400E2B18006EF00E0016BC
:102042002B50001A00C02BF019D1200E2B18006E55
:10205200F00E00162B50001A00C02BF00FD1F351D6
:102062000008D8B0F1D0840EF35DD8B0EDD0C4A290
:1020720040D0F46B120EF45D3AE2F4C100F0000EAF
:10208200016E026E036E0036009001360236033690
:10209200860E0024F66E320E0120F76E000E02202C
:1020A200F86E0900F5CF01F00150F3191EE1F4C1F9
:1020B20000F0000E016E026E036E003600900136D3
:1020C20002360336860E0026320E0122000E02224E
:1020D200010E0024F66E000E0120F76E000E0220A3
:1020E200F86E0900F5CFF5F102D0F42BC3D7C492F4
:1020F2000ED0720EF325F66E310EF76E000EF72239
:10210200000EF86E000EF8220900F5CFF5F1F55138
:102112000108D8B088D0E00EF55D2DE3F551E7084F
:102122002AE3C4A415D00F0EF515006E3A0E002452
:10213200F66E330EF76E000EF722000EF86E000EEA
:10214200F8220900F5CF00F0001E00504F1613D000
:102152000F0EF515006E3A0E0024F66E330EF76E72
:10216200000EF722000EF86E000EF8220900F5CFDD
:1021720000F000504F12F5C1FBF113EC09F000C062
:10218200CBF100522CE0C4A429D0B5A806D0F5C1E9
:10219200FBF10101FC6B2BEC09F00101CB05F46FA3
:1021A200050EF45D18E29F0EE16E000EE26EF45130
:1021B200E126D8B0E22AF451010F006E016A000E46
:1021C20001229F0E0024E96E000E0120EA6EEECF7E
:1021D200E6FFF42BE5D700019407C49424D0000154
:1021E200060E945D20E2B5A807D0F5C1FBF1010E01
:1021F2000101FC6F2BEC09F09F0EE16E000EE26E06
:1022020000019451E126D8B0E22AF5C1E6FF942BF1
:10221200040E0101F55D07E3F551270804E3F5C15A
:10222200FBF1E4EC0AF094C0F4F10101F451050869
:102232000BE39F0EE16E000EE26EF451E126D8B080
:10224200E22AE66AF42BF1D719D0F351E00AD8B4A6
:10225200DAD6F351F00AD8B4D8D6F351AA0AD8B4D0
:10226200D6D6F351FE0AD8B4DCD6F351FC0AD8B460
:0E227200E2D6F351FA0AD8B4E8D6F1D612003B
:102280000101D66BD451D65D1AE2D651D525D96F4E
:10229000D651D225E96E000ED321EA6EEECFDAF1E7
:1022A0004BEC0CF0020E0C6E8D0E0D6E0D2EFED74B
:1022B0000C2EFCD7000000000101D62BE3D7D4512F
:0C22C000D525D96FDA6B4BEC0CF0120046
:1022CC00016A01500101D25D10E38274070E0B6E9E
:1022DC00170E0C6E6A0E0D6E0D2EFED70C2EFCD743
:0E22EC000B2EFAD70000012AECD782941200C4
:1022FA000101D36BD46BD36B200ED35D69E2D3514A
:10230A00D225D96F50EC0DF000C0D4F10050FF0A6D
:10231A0001E160D0D451000A2FE1280ED96FDA6B9F
:10232A0058EC0DF0070E0B6E170E0C6E6A0E0D6E42
:10233A000D2EFED70C2EFCD70B2EFAD7000089ECF7
:10234A000CF09C0E0C6ED70E0D6E0D2EFED70C2EB9
:10235A00FCD7280ED96FDA6B58EC0DF0070E0B6E0E
:10236A00170E0C6E6A0E0D6E0D2EFED70C2EFCD7B4
:10237A000B2EFAD700002CD07F0ED415D96F800E01
:10238A00D415DA6F060E006E005004E0DA33DA9FD5
:10239A00FF0FFBD758EC0DF0020E0B6ED40E0C6E2D
:1023AA00850E0D6E0D2EFED70C2EFCD70B2EFAD7EE
:1023BA0089EC0CF0020E0B6ED40E0C6E850E0D6EAF
:1023CA000D2EFED70C2EFCD70B2EFAD7D32B94D773
:0623DA0089EC0CF012007A
:1023E0000B0E0001A66FF19AF090480EF0129F823A
:1023F0009E92590ECA6EFA0ECB6E9D82016A0150F2
:1024000005080BE39F0EE16E000EE26E0150E1261F
:10241000D8B0E22AE66A012AF2D7946BC46A1200A5
:102420000A0E0101D26FFF0ED96F81EC0DF0130E71
:102430000B6E440E0C6E440E0D6E0D2EFED70C2E40
:10244000FCD70B2EFAD700000101D251000A3EE062
:10245000F00E2B14016E0132019E0132019E0132F9
:10246000019E0132019E0150010A0CE1010E2B1860
:10247000006E0F0E00162B50001A00C02BF0010E3C
:10248000006E2FD0F00E2B14016E0132019E01322E
:10249000019E0132019E0132019E0150040A0BE1AE
:1024A000020E2B18006E0F0E00162B50001A00C0E3
:1024B0002BF0006A16D00101D2079C0E0C6ED70ECD
:1024C0000D6E0D2EFED70C2EFCD7BED7F00E2B14A2
:1024D000006E00C02BF00F0E2B14006E00C02BF00E
:0424E000006A12007C
:1024E400880E0001AF6F180EB06FE00EB16F010ED1
:1024F400B26FFF0EA96FFF0EAA6F000EAB6F000E36
:10250400AC6FFF0E0101CC6FFF0ECD6F000ECE6FCE
:10251400000ECF6FFF0E0001B66FFF0EB76F000EF7
:10252400B86F000EB96FAC8A900EAB6E948E949C0B
:0C2534009EAA03D0AECF00F0FBD712002F
:102540000101D66B400EE06F050EE16FE26B080EE5
:10255000E36F000EE46F26EC0CF0D4C140F52CC004
:1025600041F5D56BD551050851E3D551D225E96E1A
:10257000000ED321EA6EEE50000AD8A4D62BB5A0E7
:102580002FD0D551D225E96E000ED321EA6E3A0E36
:10259000EE5C25E3D551D225E96E000ED321EA6E1B
:1025A000EE5045081CE3020ED525006E016A000EB0
:1025B0000122400E0024D76F050E0120D86FD5519F
:1025C000D225E96E000ED321EA6EEECFD9F165EC8B
:1025D0000CF0D7C1E1FFD8C1E2FF00C0E6FF14D084
:1025E000020ED525006E016A000E0122400E002465
:1025F000E16E050E0120E26ED551D225E96E000E86
:10260000D321EA6EEECFE6FFD52BACD7010EE06FFB
:10261000400EE16F050EE26F080EE36F000EE46FEF
:0A26200019EC0CF0D6C100F0120016
:10262A000900F5CFE6FF0006FBE10106F9E1120019
:10263A000101D46BD351D45D14E2D451D225D96FA0
:10264A00FF0EDA6F4BEC0CF0020E0C6E8D0E0D6E57
:10265A000D2EFED70C2EFCD7000000000101D42B52
:04266A00E9D712009A
:10266E000001BA51000A07E1080E6D6E010EBA6F35
:10267E00686A020EBA6F68506914016E01A414D014
:10268E00BBC0BAF0080E0201106F43EC03F0699460
:10269E00FF0E0101EE6F68A407D0EEC100F0EE0749
:1026AE00005202E06894F7D768506914016E01A0D9
:1026BE0044D0B9EC0DF0010E0201106F116B126BCC
:1026CE00136B146B80EC02F0070E0024E96E000E03
:1026DE000120EA6EEECFBEF0110E0024E96E000E60
:1026EE000120EA6EEECFBFF0040E0001BA6FBEC03D
:1026FE00CAF0000ECB6FBEC04EF1000E01014F6F3F
:10270E00020E0201106F43EC03F0C00E0001C36F06
:10271E00040EC46F080EC56F000EC66F080EC76F8D
:10272E00000EC86FC26BC3C002F4C4C003F4080E1F
:10273E000401016F8C0E006F689068506914016E71
:10274E0001A80CD068986984BAC0BBF0200E0001B5
:10275E00BA6F060E0201106F43EC03F06850691455
:10276E00016E01AC06D0689C080E0201106F43EC9E
:10277E0003F068506914016E01AA03D070B0709016
:10278E00689A68506914016E01A202D06A6A689252
:10279E00040E0001BA5D02E2A19ACCD00101F16BE8
:1027AE00040EF15DD8B0C5D068506914016E01A653
:1027BE00BDD06CCFBDF0BDC000F00032009E003227
:1027CE00009E0032009E0F0E0014016E01C0F2F149
:1027DE00689601C003F0000E046E033604360390B3
:1027EE0003360436039003C000F004C001F0003637
:1027FE0000900136003600900136000E00240001D4
:10280E00A76F040E0120A86FBDA509D0460EB36FA9
:10281E00010EB46F080EA727000EA82304D0C20E17
:10282E00B36F000EB46F0B0E006E000E016EF2C190
:10283E0004F0000E056EB9EC01F00050B327015004
:10284E00B423040EA7259D6F000EA8219E6FBDA375
:10285E0008D0A7C09DF0A8C09EF0040EA727000EBA
:10286E00A8230A0EB325016E000EB421026E01C01C
:10287E00E9FF02C0EAFF010EEE18006E01C0E1FF93
:10288E0002C0E2FF00C0E6FF0101F251000A03E1BF
:10289E00D0EC0DF04BD00001BDA512D0B3C0E9FFB6
:1028AE00B4C0EAFFEECF00F0B3C0E1FFB4C0E2FF68
:1028BE00010E0018E66EF2C1FBF103EC00F036D00B
:1028CE00010EA725E96E000EA821EA6EEECF05F0E7
:1028DE00A7C0E9FFA8C0EAFFEECF00F0000E016E20
:1028EE00030E0014036E01C004F0000E041603C0A4
:1028FE0001F0006A005005100101EF6F000E01108B
:10290E00F06FB3C0E9FFB4C0EAFFEECF00F0B3C082
:10291E00E1FFB4C0E2FF010E0018E66EF2C1FBF15A
:10292E00EFC1FCF1F0C1FDF10EEC0BF00101F12B4A
:06293E0037D7A19A120038
:10294400010E0101D96F000EDA6F050EDB6FA3ECE7
:042954000CF0120071
:10295800F0A653D0F0A051D0F090CA84C4B61FD0CE
:10296800F1BA0DD00B0E0001A65D07E2A6510208D0
:1029780004E2B533B59F80B8B58FF18A0FD0000156
:10298800F19AA607A651000A09E1FCEC0FF0B5C0C0
:10299800F3F101EC10F00B0E0001A66F2ED0F1BA86
:1029A8002CD00001A65102080FE2A6510A080CE338
:1029B800010EA515006E00B002D0809801D0808865
:1029C800A533A59FA60719D0A651020A07E1C4B8E6
:1029D80002D0809801D08088A6070FD0A651010A9E
:1029E80003E18088A60709D0A651000A06E10B0E6C
:0C29F800A66F9288C496FCEC0FF0120051
:102A04009EA20CD0FCEC0FF0C4A605D0C496000125
:0E2A1400A56B8088928800010B0EA66F120041
:102A2200070E05010015026E02C000F0003600908C
:102A320000C003F0080E0014016E0150080A03E101
:0C2A4200070E0316038003C000F0120012
:102A4E00036A0101D851035C22E2D7510324006EC0
:102A5E00016A000E01220050D225E96E0150D321E9
:102A6E00EA6E7F0EEE14026E0350D425F66E000E43
:102A7E00D521F76E000ED621F86E0900F5CF01F0C4
:102A8E000250011802E0006A04D0032ADAD7010EC0
:042A9E00006E1200B4
:102AA2000101D86BD4C101F0010E006E015004E0A7
:102AB20000360090FF0FFBD700C0D7F1D2C1E9FF6B
:102AC200D3C1EAFF0050EE14016E0152010ED8A4E8
:102AD200000E006ED651001A1AE0D551000806E227
:102AE2007EEC0CF07EEC0CF0D507F7D7D2C1E9FFF3
:102AF200D3C1EAFFD751EE14016E0152010ED8A4E0
:102B0200000E006ED651001A02E0FF0ED86FD8C137
:042B120000F01200BD
:102B1600B1C0E1FFB2C0E2FFD2C1E6FFAFC000F034
:0A2B2600B0C001F075EC0DF01200D4
:102B3000A0EC0CF00050100A0BE1C382010E010161
:102B4000D96F000EDA6F050EDB6FA3EC0CF009D025
:102B5000C3929C0E0C6ED70E0D6E0D2EFED70C2E52
:042B6000FCD712008C
:102B6400A7EC19F0F26A0F0EC16E100E926E030EEE
:102B7400936EB80E946E806A816A826AF19EB56A19
:102B8400C36A2CDCB886040EB06EE10EAF6EAC8462
:102B9400A7DC0101D96B50EC0DF000C093F000509C
:102BA400FF0A04E1D96BDA6B4BEC0CF0010E000167
:102BB4009315006E00B002D0B59001D0B580020E1E
:102BC4009315026E02C000F00032009E00B002D0E5
:102BD400B59201D0B582040E9315026E02C000F0C6
:102BE4000032009E0032009E00B002D0B59401D0A5
:102BF400B5848186B5B203D0B9EC0DF0C394D08E00
:102C0400A28AA08AF28EF28EF28C070E0B6E170E39
:102C14000C6E6A0E0D6E0D2EFED70C2EFCD70B2EED
:102C2400FAD7000010EC12F0020E0101D26F66EC2C
:102C340011F00400B5A201D079DF820E0101D26F38
:102C44000F0ED36F070ED46FC80ED56FD66B27DF68
:102C5400005231E0B5A4828400019F51E00A17E1DB
:102C6400010E0101D26F7DEC11F0030E0A6E240EE9
:102C74000B6EE30E0C6E4C0E0D6E0D2EFED70C2E4D
:102C8400FCD70B2EFAD70A2EF8D7000005D010EC8B
:102C940012F08184818EB5883D0E0B6EE10E0C6EB0
:102CA4003F0E0D6E0D2EFED70C2EFCD70B2EFAD731
:102CB400000000008294C3A414D0C394ED0E01015B
:102CC400D96F81EC0DF09C0E0C6ED70E0D6E0D2E8F
:102CD400FED70C2EFCD7A3DE00C0D9F181EC0DF099
:102CE4002FDEB5A81BD23ED0B5B004D001011E0E14
:102CF400D26F0FDF42D0B5B017D02D062D50000A89
:102D040013E1010E00019311006E00C093F0010164
:102D1400D96B00C0DAF14BEC0CF0B580320E2D6E9D
:102D24001E0E0101D26FF5DE28D0B5A017D02D06F6
:102D34002D50000A13E1FE0E00019315006E00C031
:102D440093F00101D96B00C0DAF14BEC0CF0B590B3
:102D5400320E2D6E1E0E0101D26FDBDE0ED0320E4E
:102D64002D6E0BD000019F51450ABEE09F513E0AD3
:102D7400C2E09F51580AD9E0F2D72E0E0101D26F5A
:102D8400000ED36F130ED46F330ED56F000ED66FB3
:102D94000F0ED76F100ED86F58DE0052D8B497D0EC
:102DA4007AD00101C90EE06F44EC0CF08ED0CA0E4B
:102DB4000101E06F44EC0CF088D0CB0E0101E06F10
:102DC40044EC0CF082D0CC0E0101E06F44EC0CF02A
:102DD4007CD0FF0E0101D96FFF0EDA6F4BEC0CF0C3
:102DE4006D969C0E0C6ED70E0D6E0D2EFED70C2E0E
:102DF400FCD7FF006AD01E0E0101D26F8ADEB586B1
:102E04002E0E0101E06F000EE16FE26B200EE36F06
:102E1400000EE46F26EC0CF0ED0ED96F81EC0DF092
:102E24009C0E0C6ED70E0D6E0D2EFED70C2EFCD7FD
:102E3400010E0101D96F81EC0DF047D01E0E010186
:102E4400D26F67DEFD0E00019315006E00C093F093
:102E54000101D96B00C0DAF14BEC0CF09C0E0C6E46
:102E6400D70E0D6E0D2EFED70C2EFCD7FF002DD0E5
:102E7400040E00019311006E00C093F00101D96BA0
:102E840000C0DAF14BEC0CF0B5841E0E0101D26FD8
:102E940040DE1BD01AD04D501E0AD8B482D74D50F4
:102EA4001F0A85E04D50200A88E04D50210A8BE02E
:102EB4004D50270A8EE04D50130A9DE04D50180ADC
:102EC400BDE04D50080AD4E0E5D74C6A85D02E0EFB
:102ED4000101D26F000ED36F420ED46F330ED56F43
:102EE400000ED66F170ED76F080ED86FAEDD0052E6
:102EF400D8B472D057D00101CD0EE06F44EC0CF081
:102F04006AD0CE0E0101E06F44EC0CF064D0CF0E19
:102F14000101E06F44EC0CF05ED0D00E0101E06FD3
:102F240044EC0CF058D0D10E0101E06F44EC0CF0ED
:102F340052D0010E0101D26F200ED36F1DEC13F09D
:102F44001E0ED26FE6DD47D01E0E0101D26FE1DD09
:102F5400020E00019311006E00C093F00101D96BC1
:102F640000C0DAF14BEC0CF06D969C0E0C6ED70E93
:102F74000D6E0D2EFED70C2EFCD7FF002CD0FB0EB1
:102F840000019315006E00C093F00101D96B00C0DD
:102F9400DAF14BEC0CF0B5941E0E0101D26FB9DDE1
:102FA4001AD019D04D501E0AA6E04D501F0AA9E0B0
:102FB4004D50200AACE04D50210AAFE04D50220A9A
:102FC400B2E04D50130AB5E04D50180ABDE04D5023
:102FD400080AD5E0E6D74C6AB5A692D000019F5105
:102FE400280AD8A48DD01F0E4E6E2E0EE96E000E48
:102FF400EA6E4E50E926D8B0EA2AEE50000A05E0FF
:10300400000E4E5C02E34E06F0D74E501F0A30E02D
:10301400010E0101D26F200ED36F1DEC13F04E5040
:10302400010F006E016A000E01222E0E0024D26FE1
:10303400000E0120D36F00502008D46F010ED56F0D
:1030440040EC11F0ED0E0101D96F81EC0DF09C0EF6
:103054000C6ED70E0D6E0D2EFED70C2EFCD7010173
:10306400D96B81EC0DF01E0E0101D26F52DD47D0F9
:10307400ED0E0101D96F81EC0DF09C0E0C6ED70E94
:103084000D6E0D2EFED70C2EFCD7070E0101D96F45
:1030940081EC0DF03D0E0B6EE10E0C6E3F0E0D6ECD
:1030A4000D2EFED70C2EFCD70B2EFAD700000000F5
:1030B400ED0E0101D96F81EC0DF09C0E0C6ED70E54
:1030C4000D6E0D2EFED70C2EFCD70101D96B81ECB1
:1030D4000DF01E0E0101D26F1CDD250E0B6E870E46
:1030E4000C6E8B0E0D6E0D2EFED70C2EFCD70B2EF8
:1030F400FAD7000000001E0E0101D26F0ADDB5965A
:10310400070E0B6E170E0C6E6A0E0D6E0D2EFED78B
:103114000C2EFCD70B2EFAD7000027D0B5B825D03B
:103124008194819EC3A215D000019F51000A00E042
:10313400C3B00FD09F0E0101D26F000ED36F4FC0EA
:10314400D4F1A0EC12F000019F51000A02E189ECD5
:103154000CF0020E0B6ED40E0C6E850E0D6E0D2E41
:0E316400FED70C2EFCD70B2EFAD763D5FFD763
:10334E0010EE2BF0280E006E010E016E5E0EF66E64
:0E335E00320EF76E000EF86E15EC13F0120032
:103172000142003E3C3A3B450043413F3D2B35670F
:1031820000E2E100E0141E0000001D16041A1F00F8
:1031920000061B0708212000002C19091715220020
:1031A2000011050B0A1C23000000100D1824250035
:1031B20000360E0C122726000037380F33132D006D
:1031C200000034002F2E000039E5283000310000C5
:1031D2000000000000002A000059005C5F8500002A
:1031E20062635A5D5E60295344575B5655614700DE
:0431F2000000004099
:1031F60005010906A101050719E029E715002501C2
:10320600750195088102950175088101950575017D
:103216000508190129059102950175039101950685
:0F3226007508150025650507190029658100C089
:103235000902290001010000000904000002030140
:103245000100092101010001223F0007058103401A
:09325500000A0705010340000A0C
:01325E00006F
:01325F00006E
:01326000323B
:10326100000000000000000000000000000000005D
:10327100000000000000000000000000000000004D
:01328100004C
:01328200004B
:01328300004A
:013284000049
:013285000048
:103286005A58694D6C4A7049714C7251744F755257
:103296007A4E7C467D4B7E4814E411E627E71FE311
:0432A6006B504A54CB
:1032AA0048494420496E74657266616365206465A5
:0A32BA00736320737472696E67007D
:1032C40048494420436F6E666967206465736320D0
:0732D400737472696E67005C
:1032DB0056657267696C69756D5F456C6563747271
:0632EB006F6E69637300C1
:1032F100120100020000000809120003000101028E
:023301000001C9
:1033030047616D655465726D696E616C484944002F
:103313000A0B0D180B091919050B0D07091C0517C5
:0C3323000B0A13091E1F20212210052C8C
:0B332F0030783030303030303031006A
:08333A0001020408102040808C
:08334200080F090E171C051706
:04334A00040309046B
:020000040030CA
:0E000000220E391EFF0080FF0FC00FE00F40E0
:00000001FF
