:1000000020EF33F00000000000EF00F000000000DF
:0A0010000000000000000000F3D71C
:04663C000000120048
:10664000C5EC3FF00F0EC16E100E926E030E936EEE
:10665000B80E946E806A816A826AF19E820E000191
:10666000A16F0F0EA26F070EA36FC80EA46FA56BCC
:106670006BEC3EF0005206E0FF0EA86FFF0EA96F14
:10668000EBEC3DF0FF0E0001A16F63EC3EF000501B
:10669000FF0A1AE145EC3EF0000E0001A16F050E65
:1066A000A26F400EA36F050EA46F4DEC3EF0A3EC5D
:1066B0003EF0005206E1D1EC3EF068EC3DF0BEDF6A
:0C66C00002D0DBEC3EF001D0B9DFFFD7C8
:1066CC000B6A0A6A096A00500402F4CF09F0F3CF8E
:1066DC0008F001500502F4CF0BF0F3CF0AF0005094
:1066EC000502F3500926F4500A22E86A0B220150E5
:1066FC000402F3500926F4500A22E86A0B2208C05F
:10670C0000F009C001F00AC002F00BC003F0120047
:10671C001E0E716E100E556E040E566E55C0E1FFB6
:10672C0056C0E2FFE69E55C0E1FF56C0E2FFE69C74
:10673C00040E5524E16E000E5620E26EE68C180E07
:10674C00276E040E286E27C0E1FF28C0E2FFE69EEC
:10675C0027C0E1FF28C0E2FFE69C040E2724E16E6F
:10676C00000E2820E26EE68C020E5524E16E000E1F
:10677C005620E26E50C0E6FF51C0E6FF010E5524D4
:10678C00E16E000E5620E26E400EE66E55C0E9FF3B
:10679C0056C0EAFFEECF00F055C0E1FF56C0E2FF55
:1067AC00400E0014E66E55C0E9FF56C0EAFFEECF6E
:1067BC0000F055C0E1FF56C0E2FF880E0010E66EF7
:1067CC0055C046F056C047F0040E5518006E00C078
:0467DC0055F0120062
:1067E0000401286B296B42D0228E28815250010A65
:1067F000D8B4288350D0228E4ED0228E24BF16D0FB
:1068000024C403F00F0E031603C000F0000E016E47
:10681000003600900136530E0024E96E000E012070
:10682000EA6EEECF04F0EECF05F015D024C403F0ED
:106830000F0E031603C000F0000E016E003600902C
:106840000136250E0024E96E000E0120EA6EEECF1F
:1068500004F0EECF05F004C0E9FF05C0EAFFEECF7B
:1068600001F001A402D0010E286F15D020C401F060
:106870001F0E01160150000AB7E020C401F01F0EE0
:1068800001160150010AB7E020C401F01F0E0116E5
:106890000150020AB2E022AE07D0280E1F6E040E8D
:0A68A000206E2280020E236E12000B
:1068AA00228E716A4F6A22C41EF01E50000A03E14A
:0E68BA00100E5C6E03D0200E5C6E2BDF120001
:1068C80004012051800AD8A471D0C00E226E64D071
:1068D8006D0E006E7F0E016E000E026E00C01FF07E
:1068E80001C020F002C021F0120E236E000E246EAB
:1068F8005DD0030E006E000E016E22C404F0000E7F
:10690800056EE0DE3E0E0024E96E000E0120EA6E00
:10691800EECF1FF0EECF20F0EECF21F0020E1F24B5
:10692800F66E000E2020F76E000E2120F86E09008A
:10693800F5CF00F00900F5CF01F000C023F001C049
:1069480024F034D02251455C23E3030E006E000E80
:10695800016E22C404F0000E056EB4DE350E00246C
:10696800E96E000E0120EA6EEECF1FF0EECF20F0A8
:10697800EECF21F01FC0F6FF20C0F7FF21C0F8FFBF
:106988000900F5CF00F000C023F0000E246E01D0FE
:10699800226A0CD0226A0AD02351010A99E02351B5
:0E69A800020AA7E02351030ACDE0F4D7120043
:1069B60020C401F01F0E01160150010A01E08DD01E
:1069C60004012451000A01E088D02151060A3FE162
:1069D60034D01E50010A17E1DB0E006E7E0E016EEA
:1069E600000E026E120E0026000E0122022200C0C8
:1069F6001FF001C020F002C021F0090E236E000E28
:106A0600246EC00E226E23D01E50010A12E14C0ED7
:106A1600006E7F0E016E000E026E00C01FF001C0F8
:106A260020F002C021F0210E236E000E246EC00E4F
:106A3600226E0DD0800E226E0AD004012351210A47
:106A4600C8E02351220AE0E02351230AF3E020C4E0
:106A560001F0600E0116050E006E005004E00132D2
:106A6600019EFF0FFBD70150010A01E036D022D06C
:106A760034D033D01C0E1F6E000E206E010E236E16
:106A8600000E246EC10E226E28D0800E226E23C404
:106A96001CF023D01D0E1F6E000E206E010E236EFD
:106AA600000E246E810E226E18D0800E226E22C435
:106AB6001DF013D004012151010ADAE02151090A1F
:106AC600D8E02151020AD6E021510A0ADEE021511E
:0C6AD600030AE0E021510B0AE8E0120086
:106AE200000E245C02E1080E235C10E223C003F0D6
:106AF20024C004F05E50000A03E1010E5E6E05D070
:106B02005E50010A02E1020E5E6E04D0080E036EB0
:106B1200000E046E25C0E1FF26C0E2FFE69225C00A
:106B2200E1FF26C0E2FFE69025C0E9FF26C0EAFFAA
:106B3200EECF00F025C0E1FF26C0E2FF04500010B6
:106B4200E66E010E2524E16E000E2620E26E03C0E1
:106B5200E6FF0350235C006E04502458016E00C00F
:106B620023F001C024F0280E5A6E040E5B6E22B090
:106B72002FD0035004102BE01FC0F6FF20C0F7FFF8
:106B820021C0F8FF0900F5CF00F05AC0E1FF5BC059
:106B9200E2FF00C0E6FF5A4A5B2A010E1F24006E84
:106BA200000E2020016E000E2120026E00C01FF098
:106BB20001C020F002C021F0010E035C006E000E45
:106BC2000458016E00C003F001C004F0D2D724D0F3
:106BD2000350041021E01FC0E9FF20C0EAFF5AC0A1
:106BE200E1FF5BC0E2FFEECFE6FF5A4A5B2A010EED
:106BF2001F24006E000E2020016E00C01FF001C095
:106C020020F0010E035C006E000E0458016E00C0FD
:0A6C120003F001C004F0DCD712000B
:106C1C0004012251010A0FE120C401F01F0E0116DC
:106C2C000150000A08E1228E2151030A03E1010EF2
:106C3C00526E01D0526A2251000AD8A48BD020C4C3
:106C4C0001F01F0E01160150020AD8A483D024C4EF
:106C5C0001F00F0E01160150000AD8B47BD0228E21
:106C6C0024BF16D024C403F00F0E031603C000F08B
:106C7C00000E016E003600900136530E0024E96EB2
:106C8C00000E0120EA6EEECF04F0EECF05F015D029
:106C9C0024C403F00F0E031603C000F0000E016EA7
:106CAC00003600900136250E0024E96E000E0120FE
:106CBC00EA6EEECF04F0EECF05F02151030A07E1A6
:106CCC0004C0E1FF05C0E2FF840EE66E43D024C48D
:106CDC0000F00F0E0016700E026E0F0E036E0050B9
:106CEC000226D8B0032A02C0E9FF03C0EAFFFE0E59
:106CFC00EE14006EEECF01F0FF0E011602C0E1FFA4
:106D0C0003C0E2FF00C0E6FF01C0E6FF24AF11D0D4
:106D1C0004C0E1FF05C0E2FFE66A040E0418006E31
:106D2C0000C004F004C0E1FF05C0E2FF400EE66EB7
:106D3C0011D004C0E1FF05C0E2FF880EE66E040E20
:106D4C000418006E00C004F004C0E1FF05C0E2FFAF
:066D5C00C80EE66E1200F5
:0E6D6200160E6F6E9F0E6B6E3B0E696E12006A
:106D7000010E5824E96E000E5920EA6EEECF00F0A5
:106D800000C002F0000E2F5C02E102502E5C03E214
:106D90002EC002F00AD002502E5C006E000E2F585A
:106DA000016E00C02EF001C02FF0036A0250035C98
:106DB0001CE2280EE96E040EEA6E0350E926D8B0F4
:106DC000EA2AEECF00F02BC0E1FF2CC0E2FF00C0AA
:106DD000E6FF010E2B24006E000E2C20016E00C079
:106DE0002BF001C02CF0032AE1D7000E006E2F50CB
:106DF000005C02E12E50000828E2010E2924E16E19
:106E0000000E2A20E26E080EE66E020E2924E16EC4
:106E1000000E2A20E26E280EE66E040EE66E58C0C2
:106E2000E9FF59C0EAFFEECF00F000BC07D029C04F
:106E3000E1FF2AC0E2FFC80EE66E06D029C0E1FFDE
:106E40002AC0E2FF880EE66E19D0010E2924E16EF9
:106E5000000E2A20E26E080EE66E020E2924E16E74
:106E6000000E2A20E26E200EE66E040EE66E29C0A9
:0E6E7000E1FF2AC0E2FF840EE66E2D9E1200A6
:106E7E00346A25C0E1FF26C0E2FFE66A040E25183B
:106E8E00E16E26C0E2FF000EE21AE66A2DBE2D9ECE
:026E9E001200E0
:086EA0005D5201E088DD1200E3
:106EA8006D9822BE49D02DAE28D0020E346E010E48
:106EB8002524E16E000E2620E26EE66A25C0E1FF79
:106EC80026C0E2FFC80EE66E010E2924E16E000E10
:106ED8002A20E26E080EE66E020E2924E16E000EEC
:106EE8002A20E26E280EE66E040EE66E29C0E1FF47
:106EF8002AC0E2FFC80EE66E1ED0010E2924E16EFC
:106F0800000E2A20E26E080EE66E020E2924E16EBB
:106F1800000E2A20E26E200EE66E040EE66E29C0F0
:106F2800E1FF2AC0E2FF8C0EE66E25C0E1FF26C015
:106F3800E2FF840EE66E7DD02DBE7BD0040120AF2B
:106F480051D02450275D02E12350265D04E226C477
:106F580023F027C424F0C1DD010E346E010E29246C
:106F6800E16E000E2A20E26E080EE66E020E29245B
:106F7800E16E000E2A20E26E200EE66E040EE66E2A
:106F880029C0E1FF2AC0E2FF800EE66E576A010EB3
:106F98005824E16E000E5920E26E080EE66E020ECD
:106FA8005824E16E000E5920E26E200EE66E040EA3
:106FB800E66E58C0E1FF59C0E2FF840EE66E010E8E
:106FC800576E020E2524E16E000E2620E26E280E72
:106FD800E66E040EE66E25C0E1FF26C0E2FFC80E8D
:106FE800E66E27D0020E346E010E2524E16E000EE7
:106FF8002620E26EE66A25C0E1FF26C0E2FFC80E41
:10700800E66E010E2924E16E000E2A20E26E080EBB
:10701800E66E020E2924E16E000E2A20E26E280E8A
:10702800E66E040EE66E29C0E1FF2AC0E2FFC80E34
:04703800E66E1200EE
:10703C00DB0E3E6E7E0E3F6E000E406E860E356E83
:10704C007F0E366E000E376E2A0E386E7F0E396E3E
:10705C00000E3A6E040E3B6E7F0E3C6E000E3D6EC3
:02706C00120010
:10706E0020C401F0600E0116050E006E005004E003
:10707E000132019EFF0FFBD70150000A01E059D0EB
:10708E0035D0228E080E5C6E54D017DC52D006DC42
:10709E0050D01E0E1F6E000E206E2280010E236E2B
:1070AE00228E47D0F0EC33F044D0B1DD42D04F0EFB
:1070BE00006E000E016E24510026D8B0012A00C0C9
:1070CE001FF001C020F02280010E236E228E31D0DF
:1070DE00228E4F0EE16E000EE26E2451E126D8B0E4
:1070EE00E22A22C4E6FF25D024D023D00401215168
:1070FE00050AC7E02151060AC8E02151090AC7E076
:10710E002151080AC6E02151000ACCE02151010AA2
:10711E00CCE02151030AC9E021510A0AC8E02151ED
:10712E000B0AD6E02151070ADFE021510C0ADDE0FF
:04713E00DCD7120088
:1071420025C0E9FF26C0EAFFEECF00F000AE05D071
:1071520025C0E1FF26C0E2FFE66A5E6A346A236A5E
:0C716200246A226A83DF9BDE9EDE12009E
:10716E0066DF466A476A486A496A6A6A686AF2DD91
:10717E006D8C6E6A716A6D9C4B6A4C6A000E4C5C2B
:10718E0002E1080E4B5C17E24BC000F04CC001F060
:10719E00003600900136003600900136000E0024B5
:1071AE00E16E040E0120E26EE66AE66AE66AE66ABF
:1071BE004B4A4C2AE3D7160E706E68A603D0F70E14
:1071CE006816FBD7226A2D6A2E6A2F6A6D98080EF2
:0C71DE00256E040E266E1E6A5C6A12000C
:0471EA00A19A120054
:0A71EE006984EF0E68166D8212002E
:1071F8006D92699468A403D0FB0E6816FBD7120041
:1072080070A019D058C0E9FF59C0EAFFEECF01F0CD
:107218000150800A0FE125C0E9FF26C0EAFFEECF42
:1072280001F00150840A06E158C0E1FF59C0E2FFAD
:0C7238008C0EE66E7090DF0E68161200DF
:10724400040E2518006E00C025F05C50080A0AE1FF
:1072540022C46EFF6E50000803E2100E5C6E02D072
:10726400040E5C6E3450010A3AE1020E2524E16EEC
:10727400000E2620E26E280EE66E040EE66E2FDC6B
:107284005E50020A07E125C0E1FF26C0E2FF840E3A
:10729400E66E24D0040E2518006E00C025F025C02B
:1072A400E9FF26C0EAFFEECF00F000BC0CD0040ECC
:1072B4002518006E00C025F025C0E1FF26C0E2FFBE
:1072C400C80EE66E0BD0040E2518006E00C025F023
:1072D40025C0E1FF26C0E2FF880EE66E01D0CDDDB9
:0272E400120096
:1072E6003450020A02E141DD1ED0C6DD5750000AC5
:1072F60019E1010E2924E16E000E2A20E26E080E25
:10730600E66E020E2924E16E000E2A20E26E200EA1
:10731600E66E040EE66E29C0E1FF2AC0E2FF8C0E7F
:08732600E66E01D0576A120067
:10732E000001BA51000A12E0B9C000F0000E016E61
:10733E00003600900136250E0024E96E000E012065
:10734E00EA6EEECF04F0EECF05F011D0B9C000F02A
:10735E00000E016E003600900136530E0024E96EC9
:10736E00000E0120EA6EEECF04F0EECF05F0020E15
:10737E000424E16E000E0520E26EBBC0E6FFBCC029
:10738E00E6FF010E0424E16E000E0520E26EBDC084
:10739E00E6FF04C0E9FF05C0EAFFEECF00F004C02F
:1073AE00E1FF05C0E2FF400E0014E66E04C0E9FFE7
:1073BE0005C0EAFFEECF00F004C0E1FF05C0E2FF1A
:1073CE00880E0010E66EBA51000A1BE0B9C000F03C
:1073DE00000E016E003600900136250E0024026E5E
:1073EE00000E0120036E02C0E9FF03C0EAFF040E87
:1073FE00EE18006E02C0E1FF03C0E2FF00C0E6FF20
:10740E001AD0B9C000F0000E016E003600900136A1
:10741E00530E0024026E000E0120036E02C0E9FF1F
:10742E0003C0EAFF040EEE18006E02C0E1FF03C0B7
:10743E00E2FF00C0E6FF04C000F005C001F012003C
:10744E005C50000A09E16D6A696A84DC6DB602D08F
:10745E006D86FCD7010E5C6E5C50010A08E16DBAB8
:10746E0006D0686A696A69806988020E5C6E68A4D3
:10747E0005D069A403D0FB0E6816B7DE6DA202D04C
:10748E00ADDED6D068A018D069A016D069DE040E85
:10749E005C6E200E0401026F040E036F080E016F66
:1074AE00000E0015006E00C000F48C0E0011006E70
:1074BE0000C000F4FE0E681668A805D069A803D0B7
:1074CE008FDEEF0E681668AC04D069AC02D0BF0E2A
:1074DE00681668AA03D069AA01D08FDE68A202D00E
:1074EE0069B26A6A040E5C5C02E278DEA1D069A61B
:1074FE009ED00001BA6B040EBA5DD8B098D068A6C3
:10750E0092D06CCF4AF0F70E6816780E4A14016EC0
:10751E000150000AD8A486D0FD0E4A14016E026AEC
:10752E00FF0E0216000E021802E1000E01186CE1A9
:10753E007E0E4A14016E01C003F00332039E03C097
:10754E0000F0000E016E00360090013600360090FD
:10755E000136000E0024026E040E0120036E02C0DE
:10756E0058F003C059F002C029F003C02AF0040EEF
:10757E002918006E00C029F002C0E9FF03C0EAFF1F
:10758E00EECF00F000C001F03C0E01160132019E5C
:10759E000132019E01500D0A35E1020E5824E96EAA
:1075AE00000E5920EA6EEECF01F0EECF02F002503F
:1075BE00040A02E1280E011823E10001020E5824EC
:1075CE00E16E000E5920E26E200EE66E040EE66E9F
:1075DE00B96B080EB95D14E2200EE16E040EE26E78
:1075EE00B951E126D8B0E22A280EE96E040EEA6EF1
:1075FE00B951E926D8B0EA2AEECFE6FFB92BE9D782
:10760E0099DD01D069DE0DD0FD0E4A14016E026ABD
:10761E00FF0E0216000E021802E1040E011801E11F
:10762E000ADE00D001D003D00001BA2B64D7D6DD1C
:02763E00120038
:10764000000E0001BA1902E1000EB91902E1016A47
:107650000AD0B9C0E9FFBAC0EAFFEECF00F0000ED1
:0C76600000BE010E016E01C000F012001F
:10766C00200E5C5C03E36DB201D002D0006A46D000
:10767C0048C0B9F049C0BAF0DDDF00523EE1B6C0F7
:10768C00B9F0010EBA6FB3C0BBF0B4C0BCF0B5C05A
:10769C00BDF047DE00C048F001C049F0416A426AC3
:1076AC00436A446A48C0B9F049C0BAF0C3DF00521B
:1076BC000EE0000E016E0150000A01E1C2DE4150E5
:1076CC0042104310441002E0006A18D0EBD748C0B7
:1076DC00B7F049C0B8F0000E491802E1000E481886
:1076EC000AE0010E0001B725E96E000EB821EA6E22
:0E76FC00EECF00F003D0006A01D0006A120049
:10770A000001B26B200E5C5C03E36DB201D002D0C3
:10771A00006A2DD046C0B9F047C0BAF08CDF0052DB
:10772A0025E146C0B0F047C0B1F0000E471802E1AB
:10773A00000E46180AE0010EB025E96E000EB121CE
:10774A00EA6EEECF00F000C0B2F0AFC0B9F0BA6B8B
:10775A00ACC0BBF0ADC0BCF0AEC0BDF0E3DD00C054
:10776A0046F001C047F0B2C000F001D0006A120032
:0A777A00D08EA28AA08AF28E1200BF
:10778400ACC0B3F0ADC0B4F0AEC0B5F0010E0001B2
:06779400B66F6ADF12006F
:10779A00F2CF02F0F29EACC0F6FFADC0F7FFAEC06A
:1077AA00F8FFB0C0E9FFB1C0EAFF0A00016A200E83
:1077BA00015C07E2EECFF5FF00000F000000012A8E
:1077CA00F6D7A68EBF0EA616A684550EA76EAA0ECB
:1077DA00A76EA682A69402BE02D0F29E01D0F28EB5
:0277EA0012008B
:1077EC006D0E006E7F0E016E000E026E0E0E0024EA
:1077FC00F66E000E0120F76E000E0220F86E0900E6
:10780C00F5CF03F003C004F00F0E0024F66E000E4B
:10781C000120F76E000E0220F86E0900F5CF01F082
:10782C000150035C12E26D0E006E7F0E016E000EB5
:10783C00026E0F0E0024F66E000E0120F76E000E85
:10784C000220F86E0900F5CF04F06D0E006E7F0E6D
:10785C00016E000E026E100E0024F66E000E01205A
:10786C00F76E000E0220F86E0900F5CF01F0015002
:10787C00045C12E26D0E006E7F0E016E000E026E45
:10788C00100E0024F66E000E0120F76E000E022082
:0E789C00F86E0900F5CF04F004C000F01200F1
:1078AA000001AF6BB06BB16B020EAC25F66E000E29
:1078BA00AD21F76E000EAE21F86E0900F5CF05F086
:1078CA00030EAC25F66E000EAD21F76E000EAE214A
:1078DA00F86E0900F5CF00F000C003F0000E046E48
:1078EA0003C001F0006A05500024066E000E012054
:1078FA00076EACC008F0ADC009F0AEC00AF0010EC8
:10790A000824F66E000E0920F76E000E0A20F86EA3
:10791A000900F5CF01F00150020A1BE1060E082406
:10792A00F66E000E0920F76E000E0A20F86E0900A6
:10793A00F5CF01F00150AF5D0CE2060E0824F66E99
:10794A00000E0920F76E000E0A20F86E0900F5CF26
:10795A00AFF0010E0824F66E000E0920F76E000E35
:10796A000A20F86E0900F5CF01F00150040A1BE164
:10797A00080E0824F66E000E0920F76E000E0A2083
:10798A00F86E0900F5CF01F00150AF5D0CE2080E68
:10799A000824F66E000E0920F76E000E0A20F86E13
:1079AA000900F5CFAFF008C0F6FF09C0F7FF0AC01B
:1079BA00F8FF0900F5CF00F00050B025016E000E67
:1079CA00B121026E01C0B0F002C0B1F00750025CF2
:1079DA0002E10650015C01E30FD008C0F6FF09C0BE
:1079EA00F7FF0AC0F8FF0900F5CF00F0005008269B
:0E79FA00000E09220A2283D7AFC000F012004F
:107A08001950000A17E1000E000A03E10F0E0501E4
:107A1800001901E00FD001C519F002C515F003C522
:107A280016F004C517F005C518F006C51AF007C505
:067A38001BF000D012005B
:107A3E000F0E0501406FA8C041F5400E0001AC6F5E
:0C7A4E00050EAD6F400EAE6F96DE12000C
:107A5A00080E0C6EC10E0D6E0D2EFED70C2EFCD725
:067A6A0000000000120004
:107A70005C50000A0BE16D6A696AB1EC36F07DDE9C
:0E7A80006DB602D06D86FCD7010E5C6E120052
:107A8E0050C0ACF051C0ADF0400E0001AE6F010E13
:067A9E00AF6F34DE1200A0
:107AA400A3DE00C0A8F0DB0E0001AC6F7E0EAD6F4C
:107AB400000EAE6FF8DE00C0A9F0A851005C03E22E
:0C7AC400A8C000F002D0A9C000F0120021
:107AD0009C0E0C6ED70E0D6E0D2EFED70C2EFCD705
:027AE000120092
:107AE200000E046E050E056E036A1A501B1003E1A8
:107AF200010E006E32D05F0E00019F5D016E000E1E
:107B0200A059026E000E021802E1400E011803E1B4
:107B1200010E006E22D00350400A02E1006A1DD01D
:107B2200000104C0E9FF05C0EAFF9FC0E1FFA0C059
:107B3200E2FFEECFE6FF010E9F25006E000EA021B0
:107B4200016E00C09FF001C0A0F0044A052A010E98
:0C7B52001A5E000E1B5A032AC8D712004E
:107B5E005F0E00019F5DA86F000EA059A96F5F0E0A
:107B6E009F6F000EA06F800E006E800EA919005C34
:107B7E0002E1A851000823E215C0ACF016C0ADF02A
:107B8E0017C0AEF018C0AFF09FC0B0F0A0C0B1F0FB
:107B9E00FDDD200E0001A85F000EA95B200E9F25C3
:107BAE00006E000EA021016E00C09FF001C0A0F07B
:107BBE00200E1526000E162217221822D4D71200D8
:087BCE006D6A696A5C6A12002D
:107BD600A6A202D00000FCD7A69CA8C0A9FFA9C0F7
:107BE600A8FFA69EA684F2CF00F0F29E550EA76EC1
:107BF600AA0EA76EA68200BE02D0F29E01D0F28E19
:047C0600A69412002E
:107C0A00F2CF00F0F29EA8C0F6FFA9C0F7FFAAC003
:107C1A00F8FFA68EBF0EA616A684A688550EA76ED6
:107C2A00AA0EA76EA682A69400BE02D0F29E01D02A
:047C3A00F28E1200B4
:107C3E00100E0C6E940E0D6E0D2EFED70C2EFCD764
:047C4E000000120020
:107C52002B0E016E400EE16E050EE26EB00EF66E58
:107C62007E0EF76E000EF86E0900F5CF00F000C030
:107C7200E6FF0106F9E1400E0001AC6F050EAD6FA3
:087C8200400EAE6F7EDD120022
:107C8A00000E006E040E016E0050011000E012009A
:107C9A0004DF00C045F0010E5D6EA1C050F0A2C025
:107CAA0051F0A3C04DF0A4C04EF0B7EC38F0000E6E
:0C7CBA00016E0150010A01E1D6DE12004B
:107CC600A69CA1C0A9FFA69EA680A8CF00F0120080
:107CD6000001A76BA3C001F0010E006E015004E085
:107CE60000360090FF0FFBD700C0A6F0A1C0E9FF49
:107CF600A2C0EAFF0050EE14016E0152010ED8A494
:107D0600000E006EA551001A18E0A451000804E206
:107D1600A1DEA0DEA407F9D7A1C0E9FFA2C0EAFF51
:107D2600A651EE14016E0152010ED8A4000E006E8B
:107D3600A551001A02E0FF0EA76FA7C000F01200BF
:107D4600100E0001A16F270EA26F27EC3AF09CDE01
:107D5600005213E056DE0BD019C0A8F06DDE196A8A
:107D6600B4DE010E006E19D071DF196A06D0195003
:107D7600030AF2E01950020AF7E05EDFA1C000F044
:107D8600A2C001F0010E0001A15F000EA25B00502F
:0C7D9600011002E1006A01D0D8D71200F1
:047DA20015DF1200D7
:107DA6000900F5CFE6FF0006FBE10106F9E1120046
:107DB6000001A16B5F0E9F6F000EA06FFF0EA86FF4
:107DC600010EA96F05DF27EC3AF05EDE0052D8B44B
:107DD6006AD017DE5CD00001A15321E07FDE00529D
:107DE6001DE0000E185C08E1000E175C05E1660E4A
:107DF600165C02E1400E155C01E2AEDE19C0A8F089
:107E06001BDE5F0E00019F6F000EA06F000E1B1899
:107E160002E1000E1A1802E1A16B196A03D00001F3
:107E2600010EA16F40D01AC000F01BC001F0010E78
:107E36001A5E000E1B5A005001101CE0000E185C62
:107E460008E1000E175C05E1660E165C02E1400EC5
:107E5600155C09E215C0A8F016C0A9F017C0AAF073
:107E660018C0ABF0CFDE400E155E000E165A175A3C
:107E7600185AD9D719C0A8F0DFDD196A14D019C06D
:107E8600A8F0DADD196A0FD0FF00196A0CD0195074
:107E96000B0AA1E01950150AC6E01950010AEFE0D5
:0A7EA6001950040AF1E08FD7120012
:107F8A0010EE15F0070E006E010E016E7F0EF66EF2
:0E7F9A007F0EF76E000EF86ED3EC3EF0120074
:107EB0002B010208008000000340000420000500A0
:107EC0001206406600000747616D655465726D6972
:0B7ED0006E616C00000000000000006C
:107EDB00090229000101008032090400000203009D
:107EEB000000092101010001222100070581034047
:097EFB000001070501034000012C
:107F04002603550053004200200048004900440065
:107F1400200042006F006F0074006C006F0061006D
:067F24006400650072001C
:107F2A0022034D0069006B0072006F0065006C004F
:107F3A0065006B00740072006F006E0069006B00D0
:027F4A006100D4
:107F4C000600FF0901A10119012940150026FF00B7
:107F5C0075089540810219012940750895409102D8
:017F6C00C054
:107F6D00120100020000000834120100010001029C
:027F7D00000101
:047F7F0000000000FE
:017F830000FD
:027F84000000FB
:047F860004030904E3
:020000040030CA
:0E000000220E3F1FFF0081FF0FC00FE00F40D8
:0200000400F00A
:10000000FFFFFFFFFFFFFFFFFFFFFFFFFFFFFFFF00
:10001000FFFFFFFFFFFFFFFFFFFFFFFFFFFFFFFFF0
:10002000FFFFFFFFFFFFFFFFFFFFFFFFFFFFFFFFE0
:10003000FFFFFFFFFFFFFFFFFFFFFFFFFFFFFFFFD0
:10004000FFFFFFFFFFFFFFFFFFFFFFFFFFFFFFFFC0
:10005000FFFFFFFFFFFFFFFFFFFFFFFFFFFFFFFFB0
:10006000FFFFFFFFFFFFFFFFFFFFFFFFFFFFFFFFA0
:10007000FFFFFFFFFFFFFFFFFFFFFFFFFFFFFFFF90
:10008000FFFFFFFFFFFFFFFFFFFFFFFFFFFFFFFF80
:10009000FFFFFFFFFFFFFFFFFFFFFFFFFFFFFFFF70
:1000A000FFFFFFFFFFFFFFFFFFFFFFFFFFFFFFFF60
:1000B000FFFFFFFFFFFFFFFFFFFFFFFFFFFFFFFF50
:1000C000FFFFFFFFFFFFFFFFFFFFFFFFFFFFFFFF40
:1000D000FFFFFFFFFFFFFFFFFFFFFFFFFFFFFFFF30
:1000E000FFFFFFFFFFFFFFFFFFFFFFFFFFFFFFFF20
:1000F000FFFFFFFFFFFFFFFFFFFFFFFFFFFFFFFF10
:00000001FF

